{
  "_format": "hh-sol-artifact-1",
  "contractName": "TokenSwap",
  "sourceName": "contracts/TokenSwap.sol",
  "abi": [
    {
      "inputs": [],
      "stateMutability": "nonpayable",
      "type": "constructor"
    },
    {
      "inputs": [
        {
          "internalType": "address",
          "name": "owner",
          "type": "address"
        }
      ],
      "name": "OwnableInvalidOwner",
      "type": "error"
    },
    {
      "inputs": [
        {
          "internalType": "address",
          "name": "account",
          "type": "address"
        }
      ],
      "name": "OwnableUnauthorizedAccount",
      "type": "error"
    },
    {
      "anonymous": false,
      "inputs": [
        {
          "indexed": true,
          "internalType": "address",
          "name": "previousOwner",
          "type": "address"
        },
        {
          "indexed": true,
          "internalType": "address",
          "name": "newOwner",
          "type": "address"
        }
      ],
      "name": "OwnershipTransferred",
      "type": "event"
    },
    {
      "anonymous": false,
      "inputs": [
        {
          "indexed": true,
          "internalType": "address",
          "name": "sender",
          "type": "address"
        },
        {
          "indexed": false,
          "internalType": "uint256",
          "name": "amount",
          "type": "uint256"
        },
        {
          "indexed": true,
          "internalType": "address",
          "name": "receiver",
          "type": "address"
        }
      ],
      "name": "Swap",
      "type": "event"
    },
    {
      "inputs": [
        {
          "internalType": "address",
          "name": "",
          "type": "address"
        }
      ],
      "name": "_tokensMetadata",
      "outputs": [
        {
          "internalType": "uint256",
          "name": "swapRate",
          "type": "uint256"
        },
        {
          "internalType": "uint256",
          "name": "lockTime",
          "type": "uint256"
        }
      ],
      "stateMutability": "view",
      "type": "function"
    },
    {
      "inputs": [
        {
          "internalType": "address",
          "name": "token",
          "type": "address"
        }
      ],
      "name": "getLockTime",
      "outputs": [
        {
          "internalType": "uint256",
          "name": "",
          "type": "uint256"
        }
      ],
      "stateMutability": "view",
      "type": "function"
    },
    {
      "inputs": [
        {
          "internalType": "address",
          "name": "token",
          "type": "address"
        }
      ],
      "name": "getSwapRate",
      "outputs": [
        {
          "internalType": "uint256",
          "name": "",
          "type": "uint256"
        }
      ],
      "stateMutability": "view",
      "type": "function"
    },
    {
      "inputs": [],
      "name": "owner",
      "outputs": [
        {
          "internalType": "address",
          "name": "",
          "type": "address"
        }
      ],
      "stateMutability": "view",
      "type": "function"
    },
    {
      "inputs": [],
      "name": "renounceOwnership",
      "outputs": [],
      "stateMutability": "nonpayable",
      "type": "function"
    },
    {
      "inputs": [
        {
          "internalType": "address",
          "name": "token",
          "type": "address"
        },
        {
          "internalType": "uint256",
          "name": "lockTime_",
          "type": "uint256"
        }
      ],
      "name": "setLockTime",
      "outputs": [],
      "stateMutability": "nonpayable",
      "type": "function"
    },
    {
      "inputs": [
        {
          "internalType": "address",
          "name": "token",
          "type": "address"
        },
        {
          "internalType": "uint256",
          "name": "swapRate_",
          "type": "uint256"
        }
      ],
      "name": "setSwapRate",
      "outputs": [],
      "stateMutability": "nonpayable",
      "type": "function"
    },
    {
      "inputs": [
        {
          "internalType": "address",
          "name": "tka_",
          "type": "address"
        },
        {
          "internalType": "address",
          "name": "tkb_",
          "type": "address"
        },
        {
          "internalType": "uint256",
          "name": "amount",
          "type": "uint256"
        }
      ],
      "name": "swap",
      "outputs": [],
      "stateMutability": "payable",
      "type": "function"
    },
    {
      "inputs": [
        {
          "internalType": "address",
          "name": "newOwner",
          "type": "address"
        }
      ],
      "name": "transferOwnership",
      "outputs": [],
      "stateMutability": "nonpayable",
      "type": "function"
    }
  ],
  "bytecode": "0x60806040523480156200001157600080fd5b5033600073ffffffffffffffffffffffffffffffffffffffff168173ffffffffffffffffffffffffffffffffffffffff1603620000885760006040517f1e4fbdf70000000000000000000000000000000000000000000000000000000081526004016200007f9190620001ea565b60405180910390fd5b6200009981620000e160201b60201c565b5033600160006101000a81548173ffffffffffffffffffffffffffffffffffffffff021916908373ffffffffffffffffffffffffffffffffffffffff16021790555062000207565b60008060009054906101000a900473ffffffffffffffffffffffffffffffffffffffff169050816000806101000a81548173ffffffffffffffffffffffffffffffffffffffff021916908373ffffffffffffffffffffffffffffffffffffffff1602179055508173ffffffffffffffffffffffffffffffffffffffff168173ffffffffffffffffffffffffffffffffffffffff167f8be0079c531659141344cd1fd0a4f28419497f9722a3daafe3b4186f6b6457e060405160405180910390a35050565b600073ffffffffffffffffffffffffffffffffffffffff82169050919050565b6000620001d282620001a5565b9050919050565b620001e481620001c5565b82525050565b6000602082019050620002016000830184620001d9565b92915050565b61162d80620002176000396000f3fe6080604052600436106100865760003560e01c8063aa31aee811610059578063aa31aee814610148578063cef5f48214610185578063df791e50146101ae578063ebba5644146101ca578063f2fde38b146101f357610086565b8063246487291461008b5780635c93bb66146100c8578063715018a6146101065780638da5cb5b1461011d575b600080fd5b34801561009757600080fd5b506100b260048036038101906100ad9190610e05565b61021c565b6040516100bf9190610e4b565b60405180910390f35b3480156100d457600080fd5b506100ef60048036038101906100ea9190610e05565b6102b0565b6040516100fd929190610e66565b60405180910390f35b34801561011257600080fd5b5061011b6102d4565b005b34801561012957600080fd5b506101326102e8565b60405161013f9190610e9e565b60405180910390f35b34801561015457600080fd5b5061016f600480360381019061016a9190610e05565b610311565b60405161017c9190610e4b565b60405180910390f35b34801561019157600080fd5b506101ac60048036038101906101a79190610ee5565b6103a5565b005b6101c860048036038101906101c39190610f25565b61043b565b005b3480156101d657600080fd5b506101f160048036038101906101ec9190610ee5565b610b2b565b005b3480156101ff57600080fd5b5061021a60048036038101906102159190610e05565b610bc0565b005b600080600260008473ffffffffffffffffffffffffffffffffffffffff1673ffffffffffffffffffffffffffffffffffffffff168152602001908152602001600020600001549050600081116102a7576040517f08c379a000000000000000000000000000000000000000000000000000000000815260040161029e90610fd5565b60405180910390fd5b80915050919050565b60026020528060005260406000206000915090508060000154908060010154905082565b6102dc610c46565b6102e66000610ccd565b565b60008060009054906101000a900473ffffffffffffffffffffffffffffffffffffffff16905090565b600080600260008473ffffffffffffffffffffffffffffffffffffffff1673ffffffffffffffffffffffffffffffffffffffff1681526020019081526020016000206001015490506000811161039c576040517f08c379a000000000000000000000000000000000000000000000000000000000815260040161039390611041565b60405180910390fd5b80915050919050565b6103ad610c46565b600081116103f0576040517f08c379a00000000000000000000000000000000000000000000000000000000081526004016103e7906110ad565b60405180910390fd5b80600260008473ffffffffffffffffffffffffffffffffffffffff1673ffffffffffffffffffffffffffffffffffffffff168152602001908152602001600020600001819055505050565b82600073ffffffffffffffffffffffffffffffffffffffff168173ffffffffffffffffffffffffffffffffffffffff16146104f55742600260008373ffffffffffffffffffffffffffffffffffffffff1673ffffffffffffffffffffffffffffffffffffffff16815260200190815260200160002060010154106104f4576040517f08c379a00000000000000000000000000000000000000000000000000000000081526004016104eb90611119565b60405180910390fd5b5b82600073ffffffffffffffffffffffffffffffffffffffff168173ffffffffffffffffffffffffffffffffffffffff16146105af5742600260008373ffffffffffffffffffffffffffffffffffffffff1673ffffffffffffffffffffffffffffffffffffffff16815260200190815260200160002060010154106105ae576040517f08c379a00000000000000000000000000000000000000000000000000000000081526004016105a590611119565b60405180910390fd5b5b600083116105f2576040517f08c379a00000000000000000000000000000000000000000000000000000000081526004016105e990611185565b60405180910390fd5b600073ffffffffffffffffffffffffffffffffffffffff168573ffffffffffffffffffffffffffffffffffffffff1614158061065b5750600073ffffffffffffffffffffffffffffffffffffffff168473ffffffffffffffffffffffffffffffffffffffff1614155b61069a576040517f08c379a0000000000000000000000000000000000000000000000000000000008152600401610691906111f1565b60405180910390fd5b60008060008060008073ffffffffffffffffffffffffffffffffffffffff168a73ffffffffffffffffffffffffffffffffffffffff16036107d25760003403610718576040517f08c379a000000000000000000000000000000000000000000000000000000000815260040161070f9061125d565b60405180910390fd5b8893506107248961021c565b91508161072f610d91565b600a61073b91906113df565b34610746919061142a565b610750919061149b565b90508373ffffffffffffffffffffffffffffffffffffffff1663a9059cbb33836040518363ffffffff1660e01b815260040161078d9291906114cc565b6020604051808303816000875af11580156107ac573d6000803e3d6000fd5b505050506040513d601f19601f820116820180604052508101906107d0919061152d565b505b600073ffffffffffffffffffffffffffffffffffffffff168973ffffffffffffffffffffffffffffffffffffffff160361088c578994506108128a61021c565b925061081c610d91565b600a61082891906113df565b8389610834919061142a565b61083e919061149b565b90503373ffffffffffffffffffffffffffffffffffffffff166108fc829081150290604051600060405180830381858888f19350505050158015610886573d6000803e3d6000fd5b50610aba565b89945088935061089b8a61021c565b92506108a68961021c565b91508473ffffffffffffffffffffffffffffffffffffffff1663313ce5676040518163ffffffff1660e01b8152600401602060405180830381865afa1580156108f3573d6000803e3d6000fd5b505050506040513d601f19601f820116820180604052508101906109179190611593565b60ff16828573ffffffffffffffffffffffffffffffffffffffff1663313ce5676040518163ffffffff1660e01b8152600401602060405180830381865afa158015610966573d6000803e3d6000fd5b505050506040513d601f19601f8201168201806040525081019061098a9190611593565b60ff16858b610999919061142a565b6109a3919061142a565b6109ad919061149b565b6109b7919061149b565b90508473ffffffffffffffffffffffffffffffffffffffff166323b872dd33308b6040518463ffffffff1660e01b81526004016109f6939291906115c0565b6020604051808303816000875af1158015610a15573d6000803e3d6000fd5b505050506040513d601f19601f82011682018060405250810190610a39919061152d565b508373ffffffffffffffffffffffffffffffffffffffff1663a9059cbb33836040518363ffffffff1660e01b8152600401610a759291906114cc565b6020604051808303816000875af1158015610a94573d6000803e3d6000fd5b505050506040513d601f19601f82011682018060405250810190610ab8919061152d565b505b3073ffffffffffffffffffffffffffffffffffffffff163373ffffffffffffffffffffffffffffffffffffffff167fb6d9aa17ec350dac77ff1dbd32fa64587b27d4fe0d1f32d441e45dd69bd3e8148a604051610b179190610e4b565b60405180910390a350505050505050505050565b610b33610c46565b428111610b75576040517f08c379a0000000000000000000000000000000000000000000000000000000008152600401610b6c90611119565b60405180910390fd5b80600260008473ffffffffffffffffffffffffffffffffffffffff1673ffffffffffffffffffffffffffffffffffffffff168152602001908152602001600020600101819055505050565b610bc8610c46565b600073ffffffffffffffffffffffffffffffffffffffff168173ffffffffffffffffffffffffffffffffffffffff1603610c3a5760006040517f1e4fbdf7000000000000000000000000000000000000000000000000000000008152600401610c319190610e9e565b60405180910390fd5b610c4381610ccd565b50565b610c4e610d9a565b73ffffffffffffffffffffffffffffffffffffffff16610c6c6102e8565b73ffffffffffffffffffffffffffffffffffffffff1614610ccb57610c8f610d9a565b6040517f118cdaa7000000000000000000000000000000000000000000000000000000008152600401610cc29190610e9e565b60405180910390fd5b565b60008060009054906101000a900473ffffffffffffffffffffffffffffffffffffffff169050816000806101000a81548173ffffffffffffffffffffffffffffffffffffffff021916908373ffffffffffffffffffffffffffffffffffffffff1602179055508173ffffffffffffffffffffffffffffffffffffffff168173ffffffffffffffffffffffffffffffffffffffff167f8be0079c531659141344cd1fd0a4f28419497f9722a3daafe3b4186f6b6457e060405160405180910390a35050565b60006012905090565b600033905090565b600080fd5b600073ffffffffffffffffffffffffffffffffffffffff82169050919050565b6000610dd282610da7565b9050919050565b610de281610dc7565b8114610ded57600080fd5b50565b600081359050610dff81610dd9565b92915050565b600060208284031215610e1b57610e1a610da2565b5b6000610e2984828501610df0565b91505092915050565b6000819050919050565b610e4581610e32565b82525050565b6000602082019050610e606000830184610e3c565b92915050565b6000604082019050610e7b6000830185610e3c565b610e886020830184610e3c565b9392505050565b610e9881610dc7565b82525050565b6000602082019050610eb36000830184610e8f565b92915050565b610ec281610e32565b8114610ecd57600080fd5b50565b600081359050610edf81610eb9565b92915050565b60008060408385031215610efc57610efb610da2565b5b6000610f0a85828601610df0565b9250506020610f1b85828601610ed0565b9150509250929050565b600080600060608486031215610f3e57610f3d610da2565b5b6000610f4c86828701610df0565b9350506020610f5d86828701610df0565b9250506040610f6e86828701610ed0565b9150509250925092565b600082825260208201905092915050565b7f537761702072617465206973206e6f7420736574000000000000000000000000600082015250565b6000610fbf601483610f78565b9150610fca82610f89565b602082019050919050565b60006020820190508181036000830152610fee81610fb2565b9050919050565b7f4c6f636b2074696d65206973206e6f7420736574000000000000000000000000600082015250565b600061102b601483610f78565b915061103682610ff5565b602082019050919050565b6000602082019050818103600083015261105a8161101e565b9050919050565b7f537761702072617465206973207a65726f000000000000000000000000000000600082015250565b6000611097601183610f78565b91506110a282611061565b602082019050919050565b600060208201905081810360008301526110c68161108a565b9050919050565b7f4c6f636b2074696d6520697320696e2074686520706173740000000000000000600082015250565b6000611103601883610f78565b915061110e826110cd565b602082019050919050565b60006020820190508181036000830152611132816110f6565b9050919050565b7f416d6f756e74206973207a65726f000000000000000000000000000000000000600082015250565b600061116f600e83610f78565b915061117a82611139565b602082019050919050565b6000602082019050818103600083015261119e81611162565b9050919050565b7f496e76616c696420746f6b656e20616464726573730000000000000000000000600082015250565b60006111db601583610f78565b91506111e6826111a5565b602082019050919050565b6000602082019050818103600083015261120a816111ce565b9050919050565b7f496e76616c696420616d6f756e74000000000000000000000000000000000000600082015250565b6000611247600e83610f78565b915061125282611211565b602082019050919050565b600060208201905081810360008301526112768161123a565b9050919050565b7f4e487b7100000000000000000000000000000000000000000000000000000000600052601160045260246000fd5b60008160011c9050919050565b6000808291508390505b6001851115611303578086048111156112df576112de61127d565b5b60018516156112ee5780820291505b80810290506112fc856112ac565b94506112c3565b94509492505050565b60008261131c57600190506113d8565b8161132a57600090506113d8565b8160018114611340576002811461134a57611379565b60019150506113d8565b60ff84111561135c5761135b61127d565b5b8360020a9150848211156113735761137261127d565b5b506113d8565b5060208310610133831016604e8410600b84101617156113ae5782820a9050838111156113a9576113a861127d565b5b6113d8565b6113bb84848460016112b9565b925090508184048111156113d2576113d161127d565b5b81810290505b9392505050565b60006113ea82610e32565b91506113f583610e32565b92506114227fffffffffffffffffffffffffffffffffffffffffffffffffffffffffffffffff848461130c565b905092915050565b600061143582610e32565b915061144083610e32565b925082820261144e81610e32565b915082820484148315176114655761146461127d565b5b5092915050565b7f4e487b7100000000000000000000000000000000000000000000000000000000600052601260045260246000fd5b60006114a682610e32565b91506114b183610e32565b9250826114c1576114c061146c565b5b828204905092915050565b60006040820190506114e16000830185610e8f565b6114ee6020830184610e3c565b9392505050565b60008115159050919050565b61150a816114f5565b811461151557600080fd5b50565b60008151905061152781611501565b92915050565b60006020828403121561154357611542610da2565b5b600061155184828501611518565b91505092915050565b600060ff82169050919050565b6115708161155a565b811461157b57600080fd5b50565b60008151905061158d81611567565b92915050565b6000602082840312156115a9576115a8610da2565b5b60006115b78482850161157e565b91505092915050565b60006060820190506115d56000830186610e8f565b6115e26020830185610e8f565b6115ef6040830184610e3c565b94935050505056fea2646970667358221220f7f79f81f4ce874299bfc49c5878995ad80b3b001bd70808f5c89e1e71a5197564736f6c63430008180033",
  "linkReferences": {},
  "deployedLinkReferences": {}
}