{
  "_format": "hh-sol-artifact-1",
  "contractName": "TokenSwap",
  "sourceName": "contracts/TokenSwap.sol",
  "abi": [
    {
      "inputs": [],
      "stateMutability": "nonpayable",
      "type": "constructor"
    },
    {
      "inputs": [
        {
          "internalType": "address",
          "name": "owner",
          "type": "address"
        }
      ],
      "name": "OwnableInvalidOwner",
      "type": "error"
    },
    {
      "inputs": [
        {
          "internalType": "address",
          "name": "account",
          "type": "address"
        }
      ],
      "name": "OwnableUnauthorizedAccount",
      "type": "error"
    },
    {
      "anonymous": false,
      "inputs": [
        {
          "indexed": true,
          "internalType": "address",
          "name": "previousOwner",
          "type": "address"
        },
        {
          "indexed": true,
          "internalType": "address",
          "name": "newOwner",
          "type": "address"
        }
      ],
      "name": "OwnershipTransferred",
      "type": "event"
    },
    {
      "anonymous": false,
      "inputs": [
        {
          "indexed": true,
          "internalType": "address",
          "name": "sender",
          "type": "address"
        },
        {
          "indexed": true,
          "internalType": "address",
          "name": "tka_",
          "type": "address"
        },
        {
          "indexed": true,
          "internalType": "address",
          "name": "tkb_",
          "type": "address"
        },
        {
          "indexed": false,
          "internalType": "uint256",
          "name": "amount",
          "type": "uint256"
        },
        {
          "indexed": false,
          "internalType": "uint256",
          "name": "receivedAmount",
          "type": "uint256"
        },
        {
          "indexed": false,
          "internalType": "uint256",
          "name": "decimalA",
          "type": "uint256"
        },
        {
          "indexed": false,
          "internalType": "uint256",
          "name": "decimalB",
          "type": "uint256"
        }
      ],
      "name": "Swap",
      "type": "event"
    },
    {
      "stateMutability": "payable",
      "type": "fallback"
    },
    {
      "inputs": [
        {
          "internalType": "address",
          "name": "",
          "type": "address"
        }
      ],
      "name": "_tokensMetadata",
      "outputs": [
        {
          "internalType": "uint256",
          "name": "swapRate",
          "type": "uint256"
        },
        {
          "internalType": "uint256",
          "name": "lockTime",
          "type": "uint256"
        }
      ],
      "stateMutability": "view",
      "type": "function"
    },
    {
      "inputs": [
        {
          "internalType": "address",
          "name": "token",
          "type": "address"
        }
      ],
      "name": "getLockTime",
      "outputs": [
        {
          "internalType": "uint256",
          "name": "",
          "type": "uint256"
        }
      ],
      "stateMutability": "view",
      "type": "function"
    },
    {
      "inputs": [
        {
          "internalType": "address",
          "name": "token",
          "type": "address"
        }
      ],
      "name": "getSwapRate",
      "outputs": [
        {
          "internalType": "uint256",
          "name": "",
          "type": "uint256"
        }
      ],
      "stateMutability": "view",
      "type": "function"
    },
    {
      "inputs": [],
      "name": "owner",
      "outputs": [
        {
          "internalType": "address",
          "name": "",
          "type": "address"
        }
      ],
      "stateMutability": "view",
      "type": "function"
    },
    {
      "inputs": [],
      "name": "renounceOwnership",
      "outputs": [],
      "stateMutability": "nonpayable",
      "type": "function"
    },
    {
      "inputs": [
        {
          "internalType": "address",
          "name": "token",
          "type": "address"
        },
        {
          "internalType": "uint256",
          "name": "lockTime_",
          "type": "uint256"
        }
      ],
      "name": "setLockTime",
      "outputs": [],
      "stateMutability": "nonpayable",
      "type": "function"
    },
    {
      "inputs": [
        {
          "internalType": "address",
          "name": "token",
          "type": "address"
        },
        {
          "internalType": "uint256",
          "name": "swapRate_",
          "type": "uint256"
        }
      ],
      "name": "setSwapRate",
      "outputs": [],
      "stateMutability": "nonpayable",
      "type": "function"
    },
    {
      "inputs": [
        {
          "internalType": "address",
          "name": "tka_",
          "type": "address"
        },
        {
          "internalType": "address",
          "name": "tkb_",
          "type": "address"
        },
        {
          "internalType": "uint256",
          "name": "amount",
          "type": "uint256"
        }
      ],
      "name": "swap",
      "outputs": [],
      "stateMutability": "payable",
      "type": "function"
    },
    {
      "inputs": [
        {
          "internalType": "address",
          "name": "newOwner",
          "type": "address"
        }
      ],
      "name": "transferOwnership",
      "outputs": [],
      "stateMutability": "nonpayable",
      "type": "function"
    },
    {
      "stateMutability": "payable",
      "type": "receive"
    }
  ],
  "bytecode": "0x60806040523480156200001157600080fd5b5033600073ffffffffffffffffffffffffffffffffffffffff168173ffffffffffffffffffffffffffffffffffffffff1603620000885760006040517f1e4fbdf70000000000000000000000000000000000000000000000000000000081526004016200007f9190620001ea565b60405180910390fd5b6200009981620000e160201b60201c565b5033600160006101000a81548173ffffffffffffffffffffffffffffffffffffffff021916908373ffffffffffffffffffffffffffffffffffffffff16021790555062000207565b60008060009054906101000a900473ffffffffffffffffffffffffffffffffffffffff169050816000806101000a81548173ffffffffffffffffffffffffffffffffffffffff021916908373ffffffffffffffffffffffffffffffffffffffff1602179055508173ffffffffffffffffffffffffffffffffffffffff168173ffffffffffffffffffffffffffffffffffffffff167f8be0079c531659141344cd1fd0a4f28419497f9722a3daafe3b4186f6b6457e060405160405180910390a35050565b600073ffffffffffffffffffffffffffffffffffffffff82169050919050565b6000620001d282620001a5565b9050919050565b620001e481620001c5565b82525050565b6000602082019050620002016000830184620001d9565b92915050565b611b9580620002176000396000f3fe60806040526004361061008a5760003560e01c8063aa31aee811610059578063aa31aee814610150578063cef5f4821461018d578063df791e50146101b6578063ebba5644146101d2578063f2fde38b146101fb57610091565b806324648729146100935780635c93bb66146100d0578063715018a61461010e5780638da5cb5b1461012557610091565b3661009157005b005b34801561009f57600080fd5b506100ba60048036038101906100b59190611263565b610224565b6040516100c791906112a9565b60405180910390f35b3480156100dc57600080fd5b506100f760048036038101906100f29190611263565b6102b8565b6040516101059291906112c4565b60405180910390f35b34801561011a57600080fd5b506101236102dc565b005b34801561013157600080fd5b5061013a6102f0565b60405161014791906112fc565b60405180910390f35b34801561015c57600080fd5b5061017760048036038101906101729190611263565b610319565b60405161018491906112a9565b60405180910390f35b34801561019957600080fd5b506101b460048036038101906101af9190611343565b6103ad565b005b6101d060048036038101906101cb9190611383565b610443565b005b3480156101de57600080fd5b506101f960048036038101906101f49190611343565b610f89565b005b34801561020757600080fd5b50610222600480360381019061021d9190611263565b61101e565b005b600080600260008473ffffffffffffffffffffffffffffffffffffffff1673ffffffffffffffffffffffffffffffffffffffff168152602001908152602001600020600001549050600081116102af576040517f08c379a00000000000000000000000000000000000000000000000000000000081526004016102a690611433565b60405180910390fd5b80915050919050565b60026020528060005260406000206000915090508060000154908060010154905082565b6102e46110a4565b6102ee600061112b565b565b60008060009054906101000a900473ffffffffffffffffffffffffffffffffffffffff16905090565b600080600260008473ffffffffffffffffffffffffffffffffffffffff1673ffffffffffffffffffffffffffffffffffffffff168152602001908152602001600020600101549050600081116103a4576040517f08c379a000000000000000000000000000000000000000000000000000000000815260040161039b9061149f565b60405180910390fd5b80915050919050565b6103b56110a4565b600081116103f8576040517f08c379a00000000000000000000000000000000000000000000000000000000081526004016103ef9061150b565b60405180910390fd5b80600260008473ffffffffffffffffffffffffffffffffffffffff1673ffffffffffffffffffffffffffffffffffffffff168152602001908152602001600020600001819055505050565b82600073ffffffffffffffffffffffffffffffffffffffff168173ffffffffffffffffffffffffffffffffffffffff16146104fd5742600260008373ffffffffffffffffffffffffffffffffffffffff1673ffffffffffffffffffffffffffffffffffffffff16815260200190815260200160002060010154106104fc576040517f08c379a00000000000000000000000000000000000000000000000000000000081526004016104f390611577565b60405180910390fd5b5b82600073ffffffffffffffffffffffffffffffffffffffff168173ffffffffffffffffffffffffffffffffffffffff16146105b75742600260008373ffffffffffffffffffffffffffffffffffffffff1673ffffffffffffffffffffffffffffffffffffffff16815260200190815260200160002060010154106105b6576040517f08c379a00000000000000000000000000000000000000000000000000000000081526004016105ad90611577565b60405180910390fd5b5b600083116105fa576040517f08c379a00000000000000000000000000000000000000000000000000000000081526004016105f1906115e3565b60405180910390fd5b600073ffffffffffffffffffffffffffffffffffffffff168573ffffffffffffffffffffffffffffffffffffffff161415806106635750600073ffffffffffffffffffffffffffffffffffffffff168473ffffffffffffffffffffffffffffffffffffffff1614155b6106a2576040517f08c379a00000000000000000000000000000000000000000000000000000000081526004016106999061164f565b60405180910390fd5b60008060008060008073ffffffffffffffffffffffffffffffffffffffff168a73ffffffffffffffffffffffffffffffffffffffff16036109415760003403610720576040517f08c379a0000000000000000000000000000000000000000000000000000000008152600401610717906116bb565b60405180910390fd5b88935061072c89610224565b9150818473ffffffffffffffffffffffffffffffffffffffff1663313ce5676040518163ffffffff1660e01b8152600401602060405180830381865afa15801561077a573d6000803e3d6000fd5b505050506040513d601f19601f8201168201806040525081019061079e9190611714565b600a6107aa91906118a3565b346107b591906118ee565b6107bf919061195f565b90508373ffffffffffffffffffffffffffffffffffffffff1663a9059cbb33836040518363ffffffff1660e01b81526004016107fc929190611990565b6020604051808303816000875af115801561081b573d6000803e3d6000fd5b505050506040513d601f19601f8201168201806040525081019061083f91906119f1565b508873ffffffffffffffffffffffffffffffffffffffff168a73ffffffffffffffffffffffffffffffffffffffff163373ffffffffffffffffffffffffffffffffffffffff167f0874b2d545cb271cdbda4e093020c452328b24af12382ed62c4d00f5c26709db34856108b06111ef565b8a73ffffffffffffffffffffffffffffffffffffffff1663313ce5676040518163ffffffff1660e01b8152600401602060405180830381865afa1580156108fb573d6000803e3d6000fd5b505050506040513d601f19601f8201168201806040525081019061091f9190611714565b60405161092f9493929190611a59565b60405180910390a45050505050610f82565b600073ffffffffffffffffffffffffffffffffffffffff168973ffffffffffffffffffffffffffffffffffffffff1603610bdf578994506109818a610224565b92508473ffffffffffffffffffffffffffffffffffffffff1663313ce5676040518163ffffffff1660e01b8152600401602060405180830381865afa1580156109ce573d6000803e3d6000fd5b505050506040513d601f19601f820116820180604052508101906109f29190611714565b600a6109fe91906118a3565b8389610a0a91906118ee565b610a14919061195f565b90508473ffffffffffffffffffffffffffffffffffffffff166323b872dd33308b6040518463ffffffff1660e01b8152600401610a5393929190611a9e565b6020604051808303816000875af1158015610a72573d6000803e3d6000fd5b505050506040513d601f19601f82011682018060405250810190610a9691906119f1565b503373ffffffffffffffffffffffffffffffffffffffff166108fc829081150290604051600060405180830381858888f19350505050158015610add573d6000803e3d6000fd5b508873ffffffffffffffffffffffffffffffffffffffff168a73ffffffffffffffffffffffffffffffffffffffff163373ffffffffffffffffffffffffffffffffffffffff167f0874b2d545cb271cdbda4e093020c452328b24af12382ed62c4d00f5c26709db8b858a73ffffffffffffffffffffffffffffffffffffffff1663313ce5676040518163ffffffff1660e01b8152600401602060405180830381865afa158015610b91573d6000803e3d6000fd5b505050506040513d601f19601f82011682018060405250810190610bb59190611714565b610bbd6111ef565b604051610bcd9493929190611ad5565b60405180910390a45050505050610f82565b899450889350610bee8a610224565b9250610bf989610224565b91508473ffffffffffffffffffffffffffffffffffffffff1663313ce5676040518163ffffffff1660e01b8152600401602060405180830381865afa158015610c46573d6000803e3d6000fd5b505050506040513d601f19601f82011682018060405250810190610c6a9190611714565b600a610c7691906118a3565b828573ffffffffffffffffffffffffffffffffffffffff1663313ce5676040518163ffffffff1660e01b8152600401602060405180830381865afa158015610cc2573d6000803e3d6000fd5b505050506040513d601f19601f82011682018060405250810190610ce69190611714565b600a610cf291906118a3565b858b610cfe91906118ee565b610d0891906118ee565b610d12919061195f565b610d1c919061195f565b90508473ffffffffffffffffffffffffffffffffffffffff166323b872dd33308b6040518463ffffffff1660e01b8152600401610d5b93929190611a9e565b6020604051808303816000875af1158015610d7a573d6000803e3d6000fd5b505050506040513d601f19601f82011682018060405250810190610d9e91906119f1565b508373ffffffffffffffffffffffffffffffffffffffff1663a9059cbb33836040518363ffffffff1660e01b8152600401610dda929190611990565b6020604051808303816000875af1158015610df9573d6000803e3d6000fd5b505050506040513d601f19601f82011682018060405250810190610e1d91906119f1565b508873ffffffffffffffffffffffffffffffffffffffff168a73ffffffffffffffffffffffffffffffffffffffff163373ffffffffffffffffffffffffffffffffffffffff167f0874b2d545cb271cdbda4e093020c452328b24af12382ed62c4d00f5c26709db8b858a73ffffffffffffffffffffffffffffffffffffffff1663313ce5676040518163ffffffff1660e01b8152600401602060405180830381865afa158015610ed1573d6000803e3d6000fd5b505050506040513d601f19601f82011682018060405250810190610ef59190611714565b8a73ffffffffffffffffffffffffffffffffffffffff1663313ce5676040518163ffffffff1660e01b8152600401602060405180830381865afa158015610f40573d6000803e3d6000fd5b505050506040513d601f19601f82011682018060405250810190610f649190611714565b604051610f749493929190611b1a565b60405180910390a450505050505b5050505050565b610f916110a4565b428111610fd3576040517f08c379a0000000000000000000000000000000000000000000000000000000008152600401610fca90611577565b60405180910390fd5b80600260008473ffffffffffffffffffffffffffffffffffffffff1673ffffffffffffffffffffffffffffffffffffffff168152602001908152602001600020600101819055505050565b6110266110a4565b600073ffffffffffffffffffffffffffffffffffffffff168173ffffffffffffffffffffffffffffffffffffffff16036110985760006040517f1e4fbdf700000000000000000000000000000000000000000000000000000000815260040161108f91906112fc565b60405180910390fd5b6110a18161112b565b50565b6110ac6111f8565b73ffffffffffffffffffffffffffffffffffffffff166110ca6102f0565b73ffffffffffffffffffffffffffffffffffffffff1614611129576110ed6111f8565b6040517f118cdaa700000000000000000000000000000000000000000000000000000000815260040161112091906112fc565b60405180910390fd5b565b60008060009054906101000a900473ffffffffffffffffffffffffffffffffffffffff169050816000806101000a81548173ffffffffffffffffffffffffffffffffffffffff021916908373ffffffffffffffffffffffffffffffffffffffff1602179055508173ffffffffffffffffffffffffffffffffffffffff168173ffffffffffffffffffffffffffffffffffffffff167f8be0079c531659141344cd1fd0a4f28419497f9722a3daafe3b4186f6b6457e060405160405180910390a35050565b60006012905090565b600033905090565b600080fd5b600073ffffffffffffffffffffffffffffffffffffffff82169050919050565b600061123082611205565b9050919050565b61124081611225565b811461124b57600080fd5b50565b60008135905061125d81611237565b92915050565b60006020828403121561127957611278611200565b5b60006112878482850161124e565b91505092915050565b6000819050919050565b6112a381611290565b82525050565b60006020820190506112be600083018461129a565b92915050565b60006040820190506112d9600083018561129a565b6112e6602083018461129a565b9392505050565b6112f681611225565b82525050565b600060208201905061131160008301846112ed565b92915050565b61132081611290565b811461132b57600080fd5b50565b60008135905061133d81611317565b92915050565b6000806040838503121561135a57611359611200565b5b60006113688582860161124e565b92505060206113798582860161132e565b9150509250929050565b60008060006060848603121561139c5761139b611200565b5b60006113aa8682870161124e565b93505060206113bb8682870161124e565b92505060406113cc8682870161132e565b9150509250925092565b600082825260208201905092915050565b7f537761702072617465206973206e6f7420736574000000000000000000000000600082015250565b600061141d6014836113d6565b9150611428826113e7565b602082019050919050565b6000602082019050818103600083015261144c81611410565b9050919050565b7f4c6f636b2074696d65206973206e6f7420736574000000000000000000000000600082015250565b60006114896014836113d6565b915061149482611453565b602082019050919050565b600060208201905081810360008301526114b88161147c565b9050919050565b7f537761702072617465206973207a65726f000000000000000000000000000000600082015250565b60006114f56011836113d6565b9150611500826114bf565b602082019050919050565b60006020820190508181036000830152611524816114e8565b9050919050565b7f4c6f636b2074696d6520697320696e2074686520706173740000000000000000600082015250565b60006115616018836113d6565b915061156c8261152b565b602082019050919050565b6000602082019050818103600083015261159081611554565b9050919050565b7f416d6f756e74206973207a65726f000000000000000000000000000000000000600082015250565b60006115cd600e836113d6565b91506115d882611597565b602082019050919050565b600060208201905081810360008301526115fc816115c0565b9050919050565b7f496e76616c696420746f6b656e20616464726573730000000000000000000000600082015250565b60006116396015836113d6565b915061164482611603565b602082019050919050565b600060208201905081810360008301526116688161162c565b9050919050565b7f496e76616c696420616d6f756e74206f66206574686572000000000000000000600082015250565b60006116a56017836113d6565b91506116b08261166f565b602082019050919050565b600060208201905081810360008301526116d481611698565b9050919050565b600060ff82169050919050565b6116f1816116db565b81146116fc57600080fd5b50565b60008151905061170e816116e8565b92915050565b60006020828403121561172a57611729611200565b5b6000611738848285016116ff565b91505092915050565b7f4e487b7100000000000000000000000000000000000000000000000000000000600052601160045260246000fd5b60008160011c9050919050565b6000808291508390505b60018511156117c7578086048111156117a3576117a2611741565b5b60018516156117b25780820291505b80810290506117c085611770565b9450611787565b94509492505050565b6000826117e0576001905061189c565b816117ee576000905061189c565b8160018114611804576002811461180e5761183d565b600191505061189c565b60ff8411156118205761181f611741565b5b8360020a91508482111561183757611836611741565b5b5061189c565b5060208310610133831016604e8410600b84101617156118725782820a90508381111561186d5761186c611741565b5b61189c565b61187f848484600161177d565b9250905081840481111561189657611895611741565b5b81810290505b9392505050565b60006118ae82611290565b91506118b9836116db565b92506118e67fffffffffffffffffffffffffffffffffffffffffffffffffffffffffffffffff84846117d0565b905092915050565b60006118f982611290565b915061190483611290565b925082820261191281611290565b9150828204841483151761192957611928611741565b5b5092915050565b7f4e487b7100000000000000000000000000000000000000000000000000000000600052601260045260246000fd5b600061196a82611290565b915061197583611290565b92508261198557611984611930565b5b828204905092915050565b60006040820190506119a560008301856112ed565b6119b2602083018461129a565b9392505050565b60008115159050919050565b6119ce816119b9565b81146119d957600080fd5b50565b6000815190506119eb816119c5565b92915050565b600060208284031215611a0757611a06611200565b5b6000611a15848285016119dc565b91505092915050565b6000819050919050565b6000611a43611a3e611a39846116db565b611a1e565b611290565b9050919050565b611a5381611a28565b82525050565b6000608082019050611a6e600083018761129a565b611a7b602083018661129a565b611a88604083018561129a565b611a956060830184611a4a565b95945050505050565b6000606082019050611ab360008301866112ed565b611ac060208301856112ed565b611acd604083018461129a565b949350505050565b6000608082019050611aea600083018761129a565b611af7602083018661129a565b611b046040830185611a4a565b611b11606083018461129a565b95945050505050565b6000608082019050611b2f600083018761129a565b611b3c602083018661129a565b611b496040830185611a4a565b611b566060830184611a4a565b9594505050505056fea2646970667358221220be00547a8b867a608b5a723ff8b01d3c894d700b530a690e398ec365f1aa0b1f64736f6c63430008180033",
  "linkReferences": {},
  "deployedLinkReferences": {}
}