{
  "_format": "hh-sol-artifact-1",
  "contractName": "Token",
  "sourceName": "contracts/Token.sol",
  "abi": [
    {
      "inputs": [
        {
          "internalType": "string",
          "name": "name_",
          "type": "string"
        },
        {
          "internalType": "string",
          "name": "symbol_",
          "type": "string"
        },
        {
          "internalType": "uint256",
          "name": "initialSupply",
          "type": "uint256"
        },
        {
          "internalType": "uint8",
          "name": "decimal_",
          "type": "uint8"
        }
      ],
      "stateMutability": "nonpayable",
      "type": "constructor"
    },
    {
      "inputs": [
        {
          "internalType": "address",
          "name": "spender",
          "type": "address"
        },
        {
          "internalType": "uint256",
          "name": "allowance",
          "type": "uint256"
        },
        {
          "internalType": "uint256",
          "name": "needed",
          "type": "uint256"
        }
      ],
      "name": "ERC20InsufficientAllowance",
      "type": "error"
    },
    {
      "inputs": [
        {
          "internalType": "address",
          "name": "sender",
          "type": "address"
        },
        {
          "internalType": "uint256",
          "name": "balance",
          "type": "uint256"
        },
        {
          "internalType": "uint256",
          "name": "needed",
          "type": "uint256"
        }
      ],
      "name": "ERC20InsufficientBalance",
      "type": "error"
    },
    {
      "inputs": [
        {
          "internalType": "address",
          "name": "approver",
          "type": "address"
        }
      ],
      "name": "ERC20InvalidApprover",
      "type": "error"
    },
    {
      "inputs": [
        {
          "internalType": "address",
          "name": "receiver",
          "type": "address"
        }
      ],
      "name": "ERC20InvalidReceiver",
      "type": "error"
    },
    {
      "inputs": [
        {
          "internalType": "address",
          "name": "sender",
          "type": "address"
        }
      ],
      "name": "ERC20InvalidSender",
      "type": "error"
    },
    {
      "inputs": [
        {
          "internalType": "address",
          "name": "spender",
          "type": "address"
        }
      ],
      "name": "ERC20InvalidSpender",
      "type": "error"
    },
    {
      "inputs": [
        {
          "internalType": "address",
          "name": "owner",
          "type": "address"
        }
      ],
      "name": "OwnableInvalidOwner",
      "type": "error"
    },
    {
      "inputs": [
        {
          "internalType": "address",
          "name": "account",
          "type": "address"
        }
      ],
      "name": "OwnableUnauthorizedAccount",
      "type": "error"
    },
    {
      "anonymous": false,
      "inputs": [
        {
          "indexed": true,
          "internalType": "address",
          "name": "owner",
          "type": "address"
        },
        {
          "indexed": true,
          "internalType": "address",
          "name": "spender",
          "type": "address"
        },
        {
          "indexed": false,
          "internalType": "uint256",
          "name": "value",
          "type": "uint256"
        }
      ],
      "name": "Approval",
      "type": "event"
    },
    {
      "anonymous": false,
      "inputs": [
        {
          "indexed": true,
          "internalType": "address",
          "name": "previousOwner",
          "type": "address"
        },
        {
          "indexed": true,
          "internalType": "address",
          "name": "newOwner",
          "type": "address"
        }
      ],
      "name": "OwnershipTransferred",
      "type": "event"
    },
    {
      "anonymous": false,
      "inputs": [
        {
          "indexed": true,
          "internalType": "address",
          "name": "from",
          "type": "address"
        },
        {
          "indexed": true,
          "internalType": "address",
          "name": "to",
          "type": "address"
        },
        {
          "indexed": false,
          "internalType": "uint256",
          "name": "value",
          "type": "uint256"
        }
      ],
      "name": "Transfer",
      "type": "event"
    },
    {
      "inputs": [
        {
          "internalType": "address",
          "name": "owner",
          "type": "address"
        },
        {
          "internalType": "address",
          "name": "spender",
          "type": "address"
        }
      ],
      "name": "allowance",
      "outputs": [
        {
          "internalType": "uint256",
          "name": "",
          "type": "uint256"
        }
      ],
      "stateMutability": "view",
      "type": "function"
    },
    {
      "inputs": [
        {
          "internalType": "address",
          "name": "spender",
          "type": "address"
        },
        {
          "internalType": "uint256",
          "name": "value",
          "type": "uint256"
        }
      ],
      "name": "approve",
      "outputs": [
        {
          "internalType": "bool",
          "name": "",
          "type": "bool"
        }
      ],
      "stateMutability": "nonpayable",
      "type": "function"
    },
    {
      "inputs": [
        {
          "internalType": "address",
          "name": "account",
          "type": "address"
        }
      ],
      "name": "balanceOf",
      "outputs": [
        {
          "internalType": "uint256",
          "name": "",
          "type": "uint256"
        }
      ],
      "stateMutability": "view",
      "type": "function"
    },
    {
      "inputs": [],
      "name": "cancelLock",
      "outputs": [],
      "stateMutability": "nonpayable",
      "type": "function"
    },
    {
      "inputs": [],
      "name": "decimals",
      "outputs": [
        {
          "internalType": "uint8",
          "name": "",
          "type": "uint8"
        }
      ],
      "stateMutability": "view",
      "type": "function"
    },
    {
      "inputs": [
        {
          "internalType": "address",
          "name": "to",
          "type": "address"
        },
        {
          "internalType": "uint256",
          "name": "amount",
          "type": "uint256"
        }
      ],
      "name": "mint",
      "outputs": [],
      "stateMutability": "nonpayable",
      "type": "function"
    },
    {
      "inputs": [],
      "name": "name",
      "outputs": [
        {
          "internalType": "string",
          "name": "",
          "type": "string"
        }
      ],
      "stateMutability": "view",
      "type": "function"
    },
    {
      "inputs": [],
      "name": "owner",
      "outputs": [
        {
          "internalType": "address",
          "name": "",
          "type": "address"
        }
      ],
      "stateMutability": "view",
      "type": "function"
    },
    {
      "inputs": [],
      "name": "renounceOwnership",
      "outputs": [],
      "stateMutability": "nonpayable",
      "type": "function"
    },
    {
      "inputs": [
        {
          "internalType": "uint256",
          "name": "duration",
          "type": "uint256"
        }
      ],
      "name": "setUnlockTransferTime",
      "outputs": [],
      "stateMutability": "nonpayable",
      "type": "function"
    },
    {
      "inputs": [],
      "name": "symbol",
      "outputs": [
        {
          "internalType": "string",
          "name": "",
          "type": "string"
        }
      ],
      "stateMutability": "view",
      "type": "function"
    },
    {
      "inputs": [],
      "name": "totalSupply",
      "outputs": [
        {
          "internalType": "uint256",
          "name": "",
          "type": "uint256"
        }
      ],
      "stateMutability": "view",
      "type": "function"
    },
    {
      "inputs": [
        {
          "internalType": "address",
          "name": "to",
          "type": "address"
        },
        {
          "internalType": "uint256",
          "name": "value",
          "type": "uint256"
        }
      ],
      "name": "transfer",
      "outputs": [
        {
          "internalType": "bool",
          "name": "",
          "type": "bool"
        }
      ],
      "stateMutability": "nonpayable",
      "type": "function"
    },
    {
      "inputs": [
        {
          "internalType": "address",
          "name": "from",
          "type": "address"
        },
        {
          "internalType": "address",
          "name": "to",
          "type": "address"
        },
        {
          "internalType": "uint256",
          "name": "value",
          "type": "uint256"
        }
      ],
      "name": "transferFrom",
      "outputs": [
        {
          "internalType": "bool",
          "name": "",
          "type": "bool"
        }
      ],
      "stateMutability": "nonpayable",
      "type": "function"
    },
    {
      "inputs": [
        {
          "internalType": "address",
          "name": "newOwner",
          "type": "address"
        }
      ],
      "name": "transferOwnership",
      "outputs": [],
      "stateMutability": "nonpayable",
      "type": "function"
    }
  ],
  "bytecode": "0x60806040523480156200001157600080fd5b50604051620021243803806200212483398181016040528101906200003791906200084c565b33848481600390816200004b919062000b3d565b5080600490816200005d919062000b3d565b505050600073ffffffffffffffffffffffffffffffffffffffff168173ffffffffffffffffffffffffffffffffffffffff1603620000d55760006040517f1e4fbdf7000000000000000000000000000000000000000000000000000000008152600401620000cc919062000c69565b60405180910390fd5b620000e6816200012d60201b60201c565b5062000108620000fb620001f360201b60201c565b836200021d60201b60201c565b80600760006101000a81548160ff021916908360ff1602179055505050505062000dde565b6000600560009054906101000a900473ffffffffffffffffffffffffffffffffffffffff16905081600560006101000a81548173ffffffffffffffffffffffffffffffffffffffff021916908373ffffffffffffffffffffffffffffffffffffffff1602179055508173ffffffffffffffffffffffffffffffffffffffff168173ffffffffffffffffffffffffffffffffffffffff167f8be0079c531659141344cd1fd0a4f28419497f9722a3daafe3b4186f6b6457e060405160405180910390a35050565b6000600560009054906101000a900473ffffffffffffffffffffffffffffffffffffffff16905090565b6200022d6200024360201b60201c565b6200023f8282620002e560201b60201c565b5050565b620002536200037260201b60201c565b73ffffffffffffffffffffffffffffffffffffffff1662000279620001f360201b60201c565b73ffffffffffffffffffffffffffffffffffffffff1614620002e357620002a56200037260201b60201c565b6040517f118cdaa7000000000000000000000000000000000000000000000000000000008152600401620002da919062000c69565b60405180910390fd5b565b600073ffffffffffffffffffffffffffffffffffffffff168273ffffffffffffffffffffffffffffffffffffffff16036200035a5760006040517fec442f0500000000000000000000000000000000000000000000000000000000815260040162000351919062000c69565b60405180910390fd5b6200036e600083836200037a60201b60201c565b5050565b600033905090565b6200038d8383836200039260201b60201c565b505050565b60016006541480620003a657506006544210155b620003e8576040517f08c379a0000000000000000000000000000000000000000000000000000000008152600401620003df9062000ce7565b60405180910390fd5b620003f86200024360201b60201c565b6200040b8383836200041060201b60201c565b505050565b600073ffffffffffffffffffffffffffffffffffffffff168373ffffffffffffffffffffffffffffffffffffffff16036200046657806002600082825462000459919062000d38565b925050819055506200053c565b60008060008573ffffffffffffffffffffffffffffffffffffffff1673ffffffffffffffffffffffffffffffffffffffff16815260200190815260200160002054905081811015620004f5578381836040517fe450d38c000000000000000000000000000000000000000000000000000000008152600401620004ec9392919062000d84565b60405180910390fd5b8181036000808673ffffffffffffffffffffffffffffffffffffffff1673ffffffffffffffffffffffffffffffffffffffff16815260200190815260200160002081905550505b600073ffffffffffffffffffffffffffffffffffffffff168273ffffffffffffffffffffffffffffffffffffffff1603620005875780600260008282540392505081905550620005d4565b806000808473ffffffffffffffffffffffffffffffffffffffff1673ffffffffffffffffffffffffffffffffffffffff168152602001908152602001600020600082825401925050819055505b8173ffffffffffffffffffffffffffffffffffffffff168373ffffffffffffffffffffffffffffffffffffffff167fddf252ad1be2c89b69c2b068fc378daa952ba7f163c4a11628f55a4df523b3ef8360405162000633919062000dc1565b60405180910390a3505050565b6000604051905090565b600080fd5b600080fd5b600080fd5b600080fd5b6000601f19601f8301169050919050565b7f4e487b7100000000000000000000000000000000000000000000000000000000600052604160045260246000fd5b620006a9826200065e565b810181811067ffffffffffffffff82111715620006cb57620006ca6200066f565b5b80604052505050565b6000620006e062000640565b9050620006ee82826200069e565b919050565b600067ffffffffffffffff8211156200071157620007106200066f565b5b6200071c826200065e565b9050602081019050919050565b60005b83811015620007495780820151818401526020810190506200072c565b60008484015250505050565b60006200076c6200076684620006f3565b620006d4565b9050828152602081018484840111156200078b576200078a62000659565b5b6200079884828562000729565b509392505050565b600082601f830112620007b857620007b762000654565b5b8151620007ca84826020860162000755565b91505092915050565b6000819050919050565b620007e881620007d3565b8114620007f457600080fd5b50565b6000815190506200080881620007dd565b92915050565b600060ff82169050919050565b62000826816200080e565b81146200083257600080fd5b50565b60008151905062000846816200081b565b92915050565b600080600080608085870312156200086957620008686200064a565b5b600085015167ffffffffffffffff8111156200088a57620008896200064f565b5b6200089887828801620007a0565b945050602085015167ffffffffffffffff811115620008bc57620008bb6200064f565b5b620008ca87828801620007a0565b9350506040620008dd87828801620007f7565b9250506060620008f08782880162000835565b91505092959194509250565b600081519050919050565b7f4e487b7100000000000000000000000000000000000000000000000000000000600052602260045260246000fd5b600060028204905060018216806200094f57607f821691505b60208210810362000965576200096462000907565b5b50919050565b60008190508160005260206000209050919050565b60006020601f8301049050919050565b600082821b905092915050565b600060088302620009cf7fffffffffffffffffffffffffffffffffffffffffffffffffffffffffffffffff8262000990565b620009db868362000990565b95508019841693508086168417925050509392505050565b6000819050919050565b600062000a1e62000a1862000a1284620007d3565b620009f3565b620007d3565b9050919050565b6000819050919050565b62000a3a83620009fd565b62000a5262000a498262000a25565b8484546200099d565b825550505050565b600090565b62000a6962000a5a565b62000a7681848462000a2f565b505050565b5b8181101562000a9e5762000a9260008262000a5f565b60018101905062000a7c565b5050565b601f82111562000aed5762000ab7816200096b565b62000ac28462000980565b8101602085101562000ad2578190505b62000aea62000ae18562000980565b83018262000a7b565b50505b505050565b600082821c905092915050565b600062000b126000198460080262000af2565b1980831691505092915050565b600062000b2d838362000aff565b9150826002028217905092915050565b62000b4882620008fc565b67ffffffffffffffff81111562000b645762000b636200066f565b5b62000b70825462000936565b62000b7d82828562000aa2565b600060209050601f83116001811462000bb5576000841562000ba0578287015190505b62000bac858262000b1f565b86555062000c1c565b601f19841662000bc5866200096b565b60005b8281101562000bef5784890151825560018201915060208501945060208101905062000bc8565b8683101562000c0f578489015162000c0b601f89168262000aff565b8355505b6001600288020188555050505b505050505050565b600073ffffffffffffffffffffffffffffffffffffffff82169050919050565b600062000c518262000c24565b9050919050565b62000c638162000c44565b82525050565b600060208201905062000c80600083018462000c58565b92915050565b600082825260208201905092915050565b7f546f6b656e207472616e736665727320617265206c6f636b6564000000000000600082015250565b600062000ccf601a8362000c86565b915062000cdc8262000c97565b602082019050919050565b6000602082019050818103600083015262000d028162000cc0565b9050919050565b7f4e487b7100000000000000000000000000000000000000000000000000000000600052601160045260246000fd5b600062000d4582620007d3565b915062000d5283620007d3565b925082820190508082111562000d6d5762000d6c62000d09565b5b92915050565b62000d7e81620007d3565b82525050565b600060608201905062000d9b600083018662000c58565b62000daa602083018562000d73565b62000db9604083018462000d73565b949350505050565b600060208201905062000dd8600083018462000d73565b92915050565b6113368062000dee6000396000f3fe608060405234801561001057600080fd5b50600436106100f55760003560e01c806370a0823111610097578063a432e7ea11610066578063a432e7ea14610250578063a9059cbb1461026c578063dd62ed3e1461029c578063f2fde38b146102cc576100f5565b806370a08231146101da578063715018a61461020a5780638da5cb5b1461021457806395d89b4114610232576100f5565b806318160ddd116100d357806318160ddd1461015257806323b872dd14610170578063313ce567146101a057806340c10f19146101be576100f5565b806306fdde03146100fa578063095ea7b3146101185780630b80f77714610148575b600080fd5b6101026102e8565b60405161010f9190610ef1565b60405180910390f35b610132600480360381019061012d9190610fac565b61037a565b60405161013f9190611007565b60405180910390f35b61015061039d565b005b61015a6103af565b6040516101679190611031565b60405180910390f35b61018a6004803603810190610185919061104c565b6103b9565b6040516101979190611007565b60405180910390f35b6101a86103e8565b6040516101b591906110bb565b60405180910390f35b6101d860048036038101906101d39190610fac565b6103ff565b005b6101f460048036038101906101ef91906110d6565b610415565b6040516102019190611031565b60405180910390f35b61021261045d565b005b61021c610471565b6040516102299190611112565b60405180910390f35b61023a61049b565b6040516102479190610ef1565b60405180910390f35b61026a6004803603810190610265919061112d565b61052d565b005b61028660048036038101906102819190610fac565b61054a565b6040516102939190611007565b60405180910390f35b6102b660048036038101906102b1919061115a565b61056d565b6040516102c39190611031565b60405180910390f35b6102e660048036038101906102e191906110d6565b6105f4565b005b6060600380546102f7906111c9565b80601f0160208091040260200160405190810160405280929190818152602001828054610323906111c9565b80156103705780601f1061034557610100808354040283529160200191610370565b820191906000526020600020905b81548152906001019060200180831161035357829003601f168201915b5050505050905090565b60008061038561067a565b9050610392818585610682565b600191505092915050565b6103a5610694565b6001600681905550565b6000600254905090565b6000806103c461067a565b90506103d185828561071b565b6103dc8585856107af565b60019150509392505050565b6000600760009054906101000a900460ff16905090565b610407610694565b61041182826108a3565b5050565b60008060008373ffffffffffffffffffffffffffffffffffffffff1673ffffffffffffffffffffffffffffffffffffffff168152602001908152602001600020549050919050565b610465610694565b61046f6000610925565b565b6000600560009054906101000a900473ffffffffffffffffffffffffffffffffffffffff16905090565b6060600480546104aa906111c9565b80601f01602080910402602001604051908101604052809291908181526020018280546104d6906111c9565b80156105235780601f106104f857610100808354040283529160200191610523565b820191906000526020600020905b81548152906001019060200180831161050657829003601f168201915b5050505050905090565b610535610694565b80426105419190611229565b60068190555050565b60008061055561067a565b90506105628185856107af565b600191505092915050565b6000600160008473ffffffffffffffffffffffffffffffffffffffff1673ffffffffffffffffffffffffffffffffffffffff16815260200190815260200160002060008373ffffffffffffffffffffffffffffffffffffffff1673ffffffffffffffffffffffffffffffffffffffff16815260200190815260200160002054905092915050565b6105fc610694565b600073ffffffffffffffffffffffffffffffffffffffff168173ffffffffffffffffffffffffffffffffffffffff160361066e5760006040517f1e4fbdf70000000000000000000000000000000000000000000000000000000081526004016106659190611112565b60405180910390fd5b61067781610925565b50565b600033905090565b61068f83838360016109eb565b505050565b61069c61067a565b73ffffffffffffffffffffffffffffffffffffffff166106ba610471565b73ffffffffffffffffffffffffffffffffffffffff1614610719576106dd61067a565b6040517f118cdaa70000000000000000000000000000000000000000000000000000000081526004016107109190611112565b60405180910390fd5b565b6000610727848461056d565b90507fffffffffffffffffffffffffffffffffffffffffffffffffffffffffffffffff81146107a95781811015610799578281836040517ffb8f41b20000000000000000000000000000000000000000000000000000000081526004016107909392919061125d565b60405180910390fd5b6107a8848484840360006109eb565b5b50505050565b600073ffffffffffffffffffffffffffffffffffffffff168373ffffffffffffffffffffffffffffffffffffffff16036108215760006040517f96c6fd1e0000000000000000000000000000000000000000000000000000000081526004016108189190611112565b60405180910390fd5b600073ffffffffffffffffffffffffffffffffffffffff168273ffffffffffffffffffffffffffffffffffffffff16036108935760006040517fec442f0500000000000000000000000000000000000000000000000000000000815260040161088a9190611112565b60405180910390fd5b61089e838383610bc2565b505050565b600073ffffffffffffffffffffffffffffffffffffffff168273ffffffffffffffffffffffffffffffffffffffff16036109155760006040517fec442f0500000000000000000000000000000000000000000000000000000000815260040161090c9190611112565b60405180910390fd5b61092160008383610bc2565b5050565b6000600560009054906101000a900473ffffffffffffffffffffffffffffffffffffffff16905081600560006101000a81548173ffffffffffffffffffffffffffffffffffffffff021916908373ffffffffffffffffffffffffffffffffffffffff1602179055508173ffffffffffffffffffffffffffffffffffffffff168173ffffffffffffffffffffffffffffffffffffffff167f8be0079c531659141344cd1fd0a4f28419497f9722a3daafe3b4186f6b6457e060405160405180910390a35050565b600073ffffffffffffffffffffffffffffffffffffffff168473ffffffffffffffffffffffffffffffffffffffff1603610a5d5760006040517fe602df05000000000000000000000000000000000000000000000000000000008152600401610a549190611112565b60405180910390fd5b600073ffffffffffffffffffffffffffffffffffffffff168373ffffffffffffffffffffffffffffffffffffffff1603610acf5760006040517f94280d62000000000000000000000000000000000000000000000000000000008152600401610ac69190611112565b60405180910390fd5b81600160008673ffffffffffffffffffffffffffffffffffffffff1673ffffffffffffffffffffffffffffffffffffffff16815260200190815260200160002060008573ffffffffffffffffffffffffffffffffffffffff1673ffffffffffffffffffffffffffffffffffffffff168152602001908152602001600020819055508015610bbc578273ffffffffffffffffffffffffffffffffffffffff168473ffffffffffffffffffffffffffffffffffffffff167f8c5be1e5ebec7d5bd14f71427d1e84f3dd0314c0f7b2291e5b200ac8c7c3b92584604051610bb39190611031565b60405180910390a35b50505050565b610bcd838383610bd2565b505050565b60016006541480610be557506006544210155b610c24576040517f08c379a0000000000000000000000000000000000000000000000000000000008152600401610c1b906112e0565b60405180910390fd5b610c2c610694565b610c37838383610c3c565b505050565b600073ffffffffffffffffffffffffffffffffffffffff168373ffffffffffffffffffffffffffffffffffffffff1603610c8e578060026000828254610c829190611229565b92505081905550610d61565b60008060008573ffffffffffffffffffffffffffffffffffffffff1673ffffffffffffffffffffffffffffffffffffffff16815260200190815260200160002054905081811015610d1a578381836040517fe450d38c000000000000000000000000000000000000000000000000000000008152600401610d119392919061125d565b60405180910390fd5b8181036000808673ffffffffffffffffffffffffffffffffffffffff1673ffffffffffffffffffffffffffffffffffffffff16815260200190815260200160002081905550505b600073ffffffffffffffffffffffffffffffffffffffff168273ffffffffffffffffffffffffffffffffffffffff1603610daa5780600260008282540392505081905550610df7565b806000808473ffffffffffffffffffffffffffffffffffffffff1673ffffffffffffffffffffffffffffffffffffffff168152602001908152602001600020600082825401925050819055505b8173ffffffffffffffffffffffffffffffffffffffff168373ffffffffffffffffffffffffffffffffffffffff167fddf252ad1be2c89b69c2b068fc378daa952ba7f163c4a11628f55a4df523b3ef83604051610e549190611031565b60405180910390a3505050565b600081519050919050565b600082825260208201905092915050565b60005b83811015610e9b578082015181840152602081019050610e80565b60008484015250505050565b6000601f19601f8301169050919050565b6000610ec382610e61565b610ecd8185610e6c565b9350610edd818560208601610e7d565b610ee681610ea7565b840191505092915050565b60006020820190508181036000830152610f0b8184610eb8565b905092915050565b600080fd5b600073ffffffffffffffffffffffffffffffffffffffff82169050919050565b6000610f4382610f18565b9050919050565b610f5381610f38565b8114610f5e57600080fd5b50565b600081359050610f7081610f4a565b92915050565b6000819050919050565b610f8981610f76565b8114610f9457600080fd5b50565b600081359050610fa681610f80565b92915050565b60008060408385031215610fc357610fc2610f13565b5b6000610fd185828601610f61565b9250506020610fe285828601610f97565b9150509250929050565b60008115159050919050565b61100181610fec565b82525050565b600060208201905061101c6000830184610ff8565b92915050565b61102b81610f76565b82525050565b60006020820190506110466000830184611022565b92915050565b60008060006060848603121561106557611064610f13565b5b600061107386828701610f61565b935050602061108486828701610f61565b925050604061109586828701610f97565b9150509250925092565b600060ff82169050919050565b6110b58161109f565b82525050565b60006020820190506110d060008301846110ac565b92915050565b6000602082840312156110ec576110eb610f13565b5b60006110fa84828501610f61565b91505092915050565b61110c81610f38565b82525050565b60006020820190506111276000830184611103565b92915050565b60006020828403121561114357611142610f13565b5b600061115184828501610f97565b91505092915050565b6000806040838503121561117157611170610f13565b5b600061117f85828601610f61565b925050602061119085828601610f61565b9150509250929050565b7f4e487b7100000000000000000000000000000000000000000000000000000000600052602260045260246000fd5b600060028204905060018216806111e157607f821691505b6020821081036111f4576111f361119a565b5b50919050565b7f4e487b7100000000000000000000000000000000000000000000000000000000600052601160045260246000fd5b600061123482610f76565b915061123f83610f76565b9250828201905080821115611257576112566111fa565b5b92915050565b60006060820190506112726000830186611103565b61127f6020830185611022565b61128c6040830184611022565b949350505050565b7f546f6b656e207472616e736665727320617265206c6f636b6564000000000000600082015250565b60006112ca601a83610e6c565b91506112d582611294565b602082019050919050565b600060208201905081810360008301526112f9816112bd565b905091905056fea26469706673582212202addc00dd3d4b5b087c7fcc1144413bcfa5d7a37cb9658973c4249ec1e711d6064736f6c63430008180033",
  "linkReferences": {},
  "deployedLinkReferences": {}
}