{
  "_format": "hh-sol-artifact-1",
  "contractName": "Lock",
  "sourceName": "contracts/Lock.sol",
  "abi": [
    {
      "inputs": [
        {
          "internalType": "uint256",
          "name": "_unlockTime",
          "type": "uint256"
        }
      ],
      "stateMutability": "payable",
      "type": "constructor"
    },
    {
      "anonymous": false,
      "inputs": [
        {
          "indexed": false,
          "internalType": "uint256",
          "name": "amount",
          "type": "uint256"
        },
        {
          "indexed": false,
          "internalType": "uint256",
          "name": "when",
          "type": "uint256"
        }
      ],
      "name": "Withdrawal",
      "type": "event"
    },
    {
      "inputs": [],
      "name": "balance",
      "outputs": [
        {
          "internalType": "uint256",
          "name": "",
          "type": "uint256"
        }
      ],
      "stateMutability": "view",
      "type": "function"
    },
    {
      "inputs": [
        {
          "internalType": "uint256",
          "name": "_balance",
          "type": "uint256"
        }
      ],
      "name": "changeBalance",
      "outputs": [],
      "stateMutability": "nonpayable",
      "type": "function"
    },
    {
      "inputs": [],
      "name": "owner",
      "outputs": [
        {
          "internalType": "address payable",
          "name": "",
          "type": "address"
        }
      ],
      "stateMutability": "view",
      "type": "function"
    },
    {
      "inputs": [],
      "name": "unlockTime",
      "outputs": [
        {
          "internalType": "uint256",
          "name": "",
          "type": "uint256"
        }
      ],
      "stateMutability": "view",
      "type": "function"
    },
    {
      "inputs": [],
      "name": "withdraw",
      "outputs": [],
      "stateMutability": "nonpayable",
      "type": "function"
    }
  ],
  "bytecode": "0x608060405260405161087e38038061087e833981810160405281019061002591906101a9565b61003f672868ff6dbdd3f78a60c01b61016b60201b60201c565b61005967a2e0e6ffb0ac5cbf60c01b61016b60201b60201c565b61007367dc61da6c64744c5360c01b61016b60201b60201c565b61008d6753430163e629371160c01b61016b60201b60201c565b8042106100cf576040517f08c379a00000000000000000000000000000000000000000000000000000000081526004016100c690610259565b60405180910390fd5b6100e967904c9bc41b70d19260c01b61016b60201b60201c565b61010367a7bf00121f79ee0f60c01b61016b60201b60201c565b806000819055506101246758b6b0b575abd3d960c01b61016b60201b60201c565b33600160006101000a81548173ffffffffffffffffffffffffffffffffffffffff021916908373ffffffffffffffffffffffffffffffffffffffff16021790555050610279565b50565b600080fd5b6000819050919050565b61018681610173565b811461019157600080fd5b50565b6000815190506101a38161017d565b92915050565b6000602082840312156101bf576101be61016e565b5b60006101cd84828501610194565b91505092915050565b600082825260208201905092915050565b7f556e6c6f636b2074696d652073686f756c6420626520696e207468652066757460008201527f7572650000000000000000000000000000000000000000000000000000000000602082015250565b60006102436023836101d6565b915061024e826101e7565b604082019050919050565b6000602082019050818103600083015261027281610236565b9050919050565b6105f6806102886000396000f3fe608060405234801561001057600080fd5b50600436106100575760003560e01c8063251c1aa31461005c5780633ccfd60b1461007a5780636833a77c146100845780638da5cb5b146100a0578063b69ef8a8146100be575b600080fd5b6100646100dc565b60405161007191906103d9565b60405180910390f35b6100826100e2565b005b61009e60048036038101906100999190610425565b61035f565b005b6100a8610391565b6040516100b59190610493565b60405180910390f35b6100c66103b7565b6040516100d391906103d9565b60405180910390f35b60005481565b6100f66791274bea95c1c32a60c01b6103bd565b61010a678eab2a7452d60bda60c01b6103bd565b61011e674fa469b854b4a0e560c01b6103bd565b610132677d5a6bf87d71a16f60c01b6103bd565b600054421015610177576040517f08c379a000000000000000000000000000000000000000000000000000000000815260040161016e9061050b565b60405180910390fd5b61018b67f832308c9e3228d260c01b6103bd565b61019f678c0457ee419dfd8360c01b6103bd565b6101b367a5599975178c410860c01b6103bd565b6101c767518bc745b75ea08160c01b6103bd565b600160009054906101000a900473ffffffffffffffffffffffffffffffffffffffff1673ffffffffffffffffffffffffffffffffffffffff163373ffffffffffffffffffffffffffffffffffffffff1614610257576040517f08c379a000000000000000000000000000000000000000000000000000000000815260040161024e90610577565b60405180910390fd5b61026b6775ab165da437b5ca60c01b6103bd565b61027f67570953732cd9bbbc60c01b6103bd565b610293674a0cd6a50f9bc24a60c01b6103bd565b7fbf2ed60bd5b5965d685680c01195c9514e4382e28e3a5a2d2d5244bf59411b9347426040516102c4929190610597565b60405180910390a16102e067649865f310501f8f60c01b6103bd565b6102f467f408a3fcbf63a18160c01b6103bd565b600160009054906101000a900473ffffffffffffffffffffffffffffffffffffffff1673ffffffffffffffffffffffffffffffffffffffff166108fc479081150290604051600060405180830381858888f1935050505015801561035c573d6000803e3d6000fd5b50565b6103736711a75fe9c8fc614560c01b6103bd565b610387679a56093be0e7d84e60c01b6103bd565b8060028190555050565b600160009054906101000a900473ffffffffffffffffffffffffffffffffffffffff1681565b60025481565b50565b6000819050919050565b6103d3816103c0565b82525050565b60006020820190506103ee60008301846103ca565b92915050565b600080fd5b610402816103c0565b811461040d57600080fd5b50565b60008135905061041f816103f9565b92915050565b60006020828403121561043b5761043a6103f4565b5b600061044984828501610410565b91505092915050565b600073ffffffffffffffffffffffffffffffffffffffff82169050919050565b600061047d82610452565b9050919050565b61048d81610472565b82525050565b60006020820190506104a86000830184610484565b92915050565b600082825260208201905092915050565b7f596f752063616e27742077697468647261772079657400000000000000000000600082015250565b60006104f56016836104ae565b9150610500826104bf565b602082019050919050565b60006020820190508181036000830152610524816104e8565b9050919050565b7f596f75206172656e277420746865206f776e6572000000000000000000000000600082015250565b60006105616014836104ae565b915061056c8261052b565b602082019050919050565b6000602082019050818103600083015261059081610554565b9050919050565b60006040820190506105ac60008301856103ca565b6105b960208301846103ca565b939250505056fea2646970667358221220b9f00bc81a1eef3469cbe94a699fc8955a5619093a3f5c7ab0ffe589c32278fb64736f6c63430008180033",
  "linkReferences": {},
  "deployedLinkReferences": {}
}