{
  "_format": "hh-sol-artifact-1",
  "contractName": "MyERC20Token",
  "sourceName": "contracts/MyERC20.sol",
  "abi": [
    {
      "inputs": [
        {
          "internalType": "string",
          "name": "_name",
          "type": "string"
        },
        {
          "internalType": "uint256",
          "name": "_totalSupply",
          "type": "uint256"
        }
      ],
      "stateMutability": "nonpayable",
      "type": "constructor"
    },
    {
      "inputs": [
        {
          "internalType": "address",
          "name": "owner",
          "type": "address"
        }
      ],
      "name": "OwnableInvalidOwner",
      "type": "error"
    },
    {
      "inputs": [
        {
          "internalType": "address",
          "name": "account",
          "type": "address"
        }
      ],
      "name": "OwnableUnauthorizedAccount",
      "type": "error"
    },
    {
      "anonymous": false,
      "inputs": [
        {
          "indexed": true,
          "internalType": "address",
          "name": "owner",
          "type": "address"
        },
        {
          "indexed": true,
          "internalType": "address",
          "name": "spender",
          "type": "address"
        },
        {
          "indexed": false,
          "internalType": "uint256",
          "name": "value",
          "type": "uint256"
        }
      ],
      "name": "Approval",
      "type": "event"
    },
    {
      "anonymous": false,
      "inputs": [
        {
          "indexed": true,
          "internalType": "address",
          "name": "previousOwner",
          "type": "address"
        },
        {
          "indexed": true,
          "internalType": "address",
          "name": "newOwner",
          "type": "address"
        }
      ],
      "name": "OwnershipTransferred",
      "type": "event"
    },
    {
      "anonymous": false,
      "inputs": [
        {
          "indexed": true,
          "internalType": "address",
          "name": "from",
          "type": "address"
        },
        {
          "indexed": true,
          "internalType": "address",
          "name": "to",
          "type": "address"
        },
        {
          "indexed": false,
          "internalType": "uint256",
          "name": "value",
          "type": "uint256"
        }
      ],
      "name": "Transfer",
      "type": "event"
    },
    {
      "inputs": [
        {
          "internalType": "address",
          "name": "owner",
          "type": "address"
        },
        {
          "internalType": "address",
          "name": "spender",
          "type": "address"
        }
      ],
      "name": "allowance",
      "outputs": [
        {
          "internalType": "uint256",
          "name": "",
          "type": "uint256"
        }
      ],
      "stateMutability": "view",
      "type": "function"
    },
    {
      "inputs": [
        {
          "internalType": "address",
          "name": "spender",
          "type": "address"
        },
        {
          "internalType": "uint256",
          "name": "value",
          "type": "uint256"
        }
      ],
      "name": "approve",
      "outputs": [
        {
          "internalType": "bool",
          "name": "",
          "type": "bool"
        }
      ],
      "stateMutability": "nonpayable",
      "type": "function"
    },
    {
      "inputs": [
        {
          "internalType": "address",
          "name": "account",
          "type": "address"
        }
      ],
      "name": "balanceOf",
      "outputs": [
        {
          "internalType": "uint256",
          "name": "",
          "type": "uint256"
        }
      ],
      "stateMutability": "view",
      "type": "function"
    },
    {
      "inputs": [],
      "name": "name",
      "outputs": [
        {
          "internalType": "string",
          "name": "",
          "type": "string"
        }
      ],
      "stateMutability": "view",
      "type": "function"
    },
    {
      "inputs": [],
      "name": "owner",
      "outputs": [
        {
          "internalType": "address",
          "name": "",
          "type": "address"
        }
      ],
      "stateMutability": "view",
      "type": "function"
    },
    {
      "inputs": [],
      "name": "renounceOwnership",
      "outputs": [],
      "stateMutability": "nonpayable",
      "type": "function"
    },
    {
      "inputs": [],
      "name": "totalSupply",
      "outputs": [
        {
          "internalType": "uint256",
          "name": "",
          "type": "uint256"
        }
      ],
      "stateMutability": "view",
      "type": "function"
    },
    {
      "inputs": [
        {
          "internalType": "address",
          "name": "to",
          "type": "address"
        },
        {
          "internalType": "uint256",
          "name": "value",
          "type": "uint256"
        }
      ],
      "name": "transfer",
      "outputs": [
        {
          "internalType": "bool",
          "name": "",
          "type": "bool"
        }
      ],
      "stateMutability": "nonpayable",
      "type": "function"
    },
    {
      "inputs": [
        {
          "internalType": "address",
          "name": "from",
          "type": "address"
        },
        {
          "internalType": "address",
          "name": "to",
          "type": "address"
        },
        {
          "internalType": "uint256",
          "name": "value",
          "type": "uint256"
        }
      ],
      "name": "transferFrom",
      "outputs": [
        {
          "internalType": "bool",
          "name": "",
          "type": "bool"
        }
      ],
      "stateMutability": "nonpayable",
      "type": "function"
    },
    {
      "inputs": [
        {
          "internalType": "address",
          "name": "newOwner",
          "type": "address"
        }
      ],
      "name": "transferOwnership",
      "outputs": [],
      "stateMutability": "nonpayable",
      "type": "function"
    }
  ],
  "bytecode": "0x60806040523480156200001157600080fd5b5060405162001a2638038062001a268339818101604052810190620000379190620003b6565b33600073ffffffffffffffffffffffffffffffffffffffff168173ffffffffffffffffffffffffffffffffffffffff1603620000ad5760006040517f1e4fbdf7000000000000000000000000000000000000000000000000000000008152600401620000a4919062000461565b60405180910390fd5b620000be816200012460201b60201c565b508160019081620000d09190620006bf565b508060048190555080600260003373ffffffffffffffffffffffffffffffffffffffff1673ffffffffffffffffffffffffffffffffffffffff168152602001908152602001600020819055505050620007a6565b60008060009054906101000a900473ffffffffffffffffffffffffffffffffffffffff169050816000806101000a81548173ffffffffffffffffffffffffffffffffffffffff021916908373ffffffffffffffffffffffffffffffffffffffff1602179055508173ffffffffffffffffffffffffffffffffffffffff168173ffffffffffffffffffffffffffffffffffffffff167f8be0079c531659141344cd1fd0a4f28419497f9722a3daafe3b4186f6b6457e060405160405180910390a35050565b6000604051905090565b600080fd5b600080fd5b600080fd5b600080fd5b6000601f19601f8301169050919050565b7f4e487b7100000000000000000000000000000000000000000000000000000000600052604160045260246000fd5b620002518262000206565b810181811067ffffffffffffffff8211171562000273576200027262000217565b5b80604052505050565b600062000288620001e8565b905062000296828262000246565b919050565b600067ffffffffffffffff821115620002b957620002b862000217565b5b620002c48262000206565b9050602081019050919050565b60005b83811015620002f1578082015181840152602081019050620002d4565b60008484015250505050565b6000620003146200030e846200029b565b6200027c565b90508281526020810184848401111562000333576200033262000201565b5b62000340848285620002d1565b509392505050565b600082601f83011262000360576200035f620001fc565b5b815162000372848260208601620002fd565b91505092915050565b6000819050919050565b62000390816200037b565b81146200039c57600080fd5b50565b600081519050620003b08162000385565b92915050565b60008060408385031215620003d057620003cf620001f2565b5b600083015167ffffffffffffffff811115620003f157620003f0620001f7565b5b620003ff8582860162000348565b925050602062000412858286016200039f565b9150509250929050565b600073ffffffffffffffffffffffffffffffffffffffff82169050919050565b600062000449826200041c565b9050919050565b6200045b816200043c565b82525050565b600060208201905062000478600083018462000450565b92915050565b600081519050919050565b7f4e487b7100000000000000000000000000000000000000000000000000000000600052602260045260246000fd5b60006002820490506001821680620004d157607f821691505b602082108103620004e757620004e662000489565b5b50919050565b60008190508160005260206000209050919050565b60006020601f8301049050919050565b600082821b905092915050565b600060088302620005517fffffffffffffffffffffffffffffffffffffffffffffffffffffffffffffffff8262000512565b6200055d868362000512565b95508019841693508086168417925050509392505050565b6000819050919050565b6000620005a06200059a62000594846200037b565b62000575565b6200037b565b9050919050565b6000819050919050565b620005bc836200057f565b620005d4620005cb82620005a7565b8484546200051f565b825550505050565b600090565b620005eb620005dc565b620005f8818484620005b1565b505050565b5b81811015620006205762000614600082620005e1565b600181019050620005fe565b5050565b601f8211156200066f576200063981620004ed565b620006448462000502565b8101602085101562000654578190505b6200066c620006638562000502565b830182620005fd565b50505b505050565b600082821c905092915050565b6000620006946000198460080262000674565b1980831691505092915050565b6000620006af838362000681565b9150826002028217905092915050565b620006ca826200047e565b67ffffffffffffffff811115620006e657620006e562000217565b5b620006f28254620004b8565b620006ff82828562000624565b600060209050601f83116001811462000737576000841562000722578287015190505b6200072e8582620006a1565b8655506200079e565b601f1984166200074786620004ed565b60005b8281101562000771578489015182556001820191506020850194506020810190506200074a565b868310156200079157848901516200078d601f89168262000681565b8355505b6001600288020188555050505b505050505050565b61127080620007b66000396000f3fe608060405234801561001057600080fd5b506004361061009e5760003560e01c8063715018a611610066578063715018a61461016f5780638da5cb5b14610179578063a9059cbb14610197578063dd62ed3e146101c7578063f2fde38b146101f75761009e565b806306fdde03146100a3578063095ea7b3146100c157806318160ddd146100f157806323b872dd1461010f57806370a082311461013f575b600080fd5b6100ab610213565b6040516100b89190610d02565b60405180910390f35b6100db60048036038101906100d69190610dbd565b6102a1565b6040516100e89190610e18565b60405180910390f35b6100f9610483565b6040516101069190610e42565b60405180910390f35b61012960048036038101906101249190610e5d565b61048d565b6040516101369190610e18565b60405180910390f35b61015960048036038101906101549190610eb0565b61077f565b6040516101669190610e42565b60405180910390f35b6101776107c8565b005b6101816107dc565b60405161018e9190610eec565b60405180910390f35b6101b160048036038101906101ac9190610dbd565b610805565b6040516101be9190610e18565b60405180910390f35b6101e160048036038101906101dc9190610f07565b610a12565b6040516101ee9190610e42565b60405180910390f35b610211600480360381019061020c9190610eb0565b610a99565b005b6001805461022090610f76565b80601f016020809104026020016040519081016040528092919081815260200182805461024c90610f76565b80156102995780601f1061026e57610100808354040283529160200191610299565b820191906000526020600020905b81548152906001019060200180831161027c57829003601f168201915b505050505081565b60008073ffffffffffffffffffffffffffffffffffffffff168373ffffffffffffffffffffffffffffffffffffffff1603610311576040517f08c379a000000000000000000000000000000000000000000000000000000000815260040161030890611019565b60405180910390fd5b81600260003373ffffffffffffffffffffffffffffffffffffffff1673ffffffffffffffffffffffffffffffffffffffff168152602001908152602001600020541015610393576040517f08c379a000000000000000000000000000000000000000000000000000000000815260040161038a90611085565b60405180910390fd5b81600360003373ffffffffffffffffffffffffffffffffffffffff1673ffffffffffffffffffffffffffffffffffffffff16815260200190815260200160002060008573ffffffffffffffffffffffffffffffffffffffff1673ffffffffffffffffffffffffffffffffffffffff168152602001908152602001600020819055508273ffffffffffffffffffffffffffffffffffffffff163373ffffffffffffffffffffffffffffffffffffffff167f8c5be1e5ebec7d5bd14f71427d1e84f3dd0314c0f7b2291e5b200ac8c7c3b925846040516104719190610e42565b60405180910390a36001905092915050565b6000600454905090565b600081600260008673ffffffffffffffffffffffffffffffffffffffff1673ffffffffffffffffffffffffffffffffffffffff168152602001908152602001600020541015610511576040517f08c379a000000000000000000000000000000000000000000000000000000000815260040161050890611085565b60405180910390fd5b81600360008673ffffffffffffffffffffffffffffffffffffffff1673ffffffffffffffffffffffffffffffffffffffff16815260200190815260200160002060003373ffffffffffffffffffffffffffffffffffffffff1673ffffffffffffffffffffffffffffffffffffffff1681526020019081526020016000205410156105d0576040517f08c379a00000000000000000000000000000000000000000000000000000000081526004016105c7906110f1565b60405180910390fd5b81600260008673ffffffffffffffffffffffffffffffffffffffff1673ffffffffffffffffffffffffffffffffffffffff168152602001908152602001600020600082825461061f9190611140565b9250508190555081600260008573ffffffffffffffffffffffffffffffffffffffff1673ffffffffffffffffffffffffffffffffffffffff16815260200190815260200160002060008282546106759190611174565b9250508190555081600360008673ffffffffffffffffffffffffffffffffffffffff1673ffffffffffffffffffffffffffffffffffffffff16815260200190815260200160002060003373ffffffffffffffffffffffffffffffffffffffff1673ffffffffffffffffffffffffffffffffffffffff16815260200190815260200160002060008282546107089190611140565b925050819055508273ffffffffffffffffffffffffffffffffffffffff168473ffffffffffffffffffffffffffffffffffffffff167fddf252ad1be2c89b69c2b068fc378daa952ba7f163c4a11628f55a4df523b3ef8460405161076c9190610e42565b60405180910390a3600190509392505050565b6000600260008373ffffffffffffffffffffffffffffffffffffffff1673ffffffffffffffffffffffffffffffffffffffff168152602001908152602001600020549050919050565b6107d0610b1f565b6107da6000610ba6565b565b60008060009054906101000a900473ffffffffffffffffffffffffffffffffffffffff16905090565b60008073ffffffffffffffffffffffffffffffffffffffff168373ffffffffffffffffffffffffffffffffffffffff1603610875576040517f08c379a000000000000000000000000000000000000000000000000000000000815260040161086c9061121a565b60405180910390fd5b81600260003373ffffffffffffffffffffffffffffffffffffffff1673ffffffffffffffffffffffffffffffffffffffff1681526020019081526020016000205410156108f7576040517f08c379a00000000000000000000000000000000000000000000000000000000081526004016108ee90611085565b60405180910390fd5b81600260003373ffffffffffffffffffffffffffffffffffffffff1673ffffffffffffffffffffffffffffffffffffffff16815260200190815260200160002060008282546109469190611140565b9250508190555081600260008573ffffffffffffffffffffffffffffffffffffffff1673ffffffffffffffffffffffffffffffffffffffff168152602001908152602001600020600082825461099c9190611174565b925050819055508273ffffffffffffffffffffffffffffffffffffffff163373ffffffffffffffffffffffffffffffffffffffff167fddf252ad1be2c89b69c2b068fc378daa952ba7f163c4a11628f55a4df523b3ef84604051610a009190610e42565b60405180910390a36001905092915050565b6000600360008473ffffffffffffffffffffffffffffffffffffffff1673ffffffffffffffffffffffffffffffffffffffff16815260200190815260200160002060008373ffffffffffffffffffffffffffffffffffffffff1673ffffffffffffffffffffffffffffffffffffffff16815260200190815260200160002054905092915050565b610aa1610b1f565b600073ffffffffffffffffffffffffffffffffffffffff168173ffffffffffffffffffffffffffffffffffffffff1603610b135760006040517f1e4fbdf7000000000000000000000000000000000000000000000000000000008152600401610b0a9190610eec565b60405180910390fd5b610b1c81610ba6565b50565b610b27610c6a565b73ffffffffffffffffffffffffffffffffffffffff16610b456107dc565b73ffffffffffffffffffffffffffffffffffffffff1614610ba457610b68610c6a565b6040517f118cdaa7000000000000000000000000000000000000000000000000000000008152600401610b9b9190610eec565b60405180910390fd5b565b60008060009054906101000a900473ffffffffffffffffffffffffffffffffffffffff169050816000806101000a81548173ffffffffffffffffffffffffffffffffffffffff021916908373ffffffffffffffffffffffffffffffffffffffff1602179055508173ffffffffffffffffffffffffffffffffffffffff168173ffffffffffffffffffffffffffffffffffffffff167f8be0079c531659141344cd1fd0a4f28419497f9722a3daafe3b4186f6b6457e060405160405180910390a35050565b600033905090565b600081519050919050565b600082825260208201905092915050565b60005b83811015610cac578082015181840152602081019050610c91565b60008484015250505050565b6000601f19601f8301169050919050565b6000610cd482610c72565b610cde8185610c7d565b9350610cee818560208601610c8e565b610cf781610cb8565b840191505092915050565b60006020820190508181036000830152610d1c8184610cc9565b905092915050565b600080fd5b600073ffffffffffffffffffffffffffffffffffffffff82169050919050565b6000610d5482610d29565b9050919050565b610d6481610d49565b8114610d6f57600080fd5b50565b600081359050610d8181610d5b565b92915050565b6000819050919050565b610d9a81610d87565b8114610da557600080fd5b50565b600081359050610db781610d91565b92915050565b60008060408385031215610dd457610dd3610d24565b5b6000610de285828601610d72565b9250506020610df385828601610da8565b9150509250929050565b60008115159050919050565b610e1281610dfd565b82525050565b6000602082019050610e2d6000830184610e09565b92915050565b610e3c81610d87565b82525050565b6000602082019050610e576000830184610e33565b92915050565b600080600060608486031215610e7657610e75610d24565b5b6000610e8486828701610d72565b9350506020610e9586828701610d72565b9250506040610ea686828701610da8565b9150509250925092565b600060208284031215610ec657610ec5610d24565b5b6000610ed484828501610d72565b91505092915050565b610ee681610d49565b82525050565b6000602082019050610f016000830184610edd565b92915050565b60008060408385031215610f1e57610f1d610d24565b5b6000610f2c85828601610d72565b9250506020610f3d85828601610d72565b9150509250929050565b7f4e487b7100000000000000000000000000000000000000000000000000000000600052602260045260246000fd5b60006002820490506001821680610f8e57607f821691505b602082108103610fa157610fa0610f47565b5b50919050565b7f45524332303a20617070726f766520746f20746865207a65726f20616464726560008201527f7373000000000000000000000000000000000000000000000000000000000000602082015250565b6000611003602283610c7d565b915061100e82610fa7565b604082019050919050565b6000602082019050818103600083015261103281610ff6565b9050919050565b7f496e73756666696369656e742062616c616e6365000000000000000000000000600082015250565b600061106f601483610c7d565b915061107a82611039565b602082019050919050565b6000602082019050818103600083015261109e81611062565b9050919050565b7f496e73756666696369656e7420616c6c6f77616e636500000000000000000000600082015250565b60006110db601683610c7d565b91506110e6826110a5565b602082019050919050565b6000602082019050818103600083015261110a816110ce565b9050919050565b7f4e487b7100000000000000000000000000000000000000000000000000000000600052601160045260246000fd5b600061114b82610d87565b915061115683610d87565b925082820390508181111561116e5761116d611111565b5b92915050565b600061117f82610d87565b915061118a83610d87565b92508282019050808211156111a2576111a1611111565b5b92915050565b7f45524332303a207472616e7366657220746f20746865207a65726f206164647260008201527f6573730000000000000000000000000000000000000000000000000000000000602082015250565b6000611204602383610c7d565b915061120f826111a8565b604082019050919050565b60006020820190508181036000830152611233816111f7565b905091905056fea2646970667358221220335225dcb032854338cf425af19383d4ae0dc1ffc6dd8b9997f4ef8e939eff2364736f6c63430008180033",
  "linkReferences": {},
  "deployedLinkReferences": {}
}