{
  "_format": "hh-sol-artifact-1",
  "contractName": "dxfc",
  "sourceName": "contracts/Swap.sol",
  "abi": [
    {
      "inputs": [],
      "stateMutability": "nonpayable",
      "type": "constructor"
    },
    {
      "inputs": [
        {
          "internalType": "address",
          "name": "owner",
          "type": "address"
        }
      ],
      "name": "OwnableInvalidOwner",
      "type": "error"
    },
    {
      "inputs": [
        {
          "internalType": "address",
          "name": "account",
          "type": "address"
        }
      ],
      "name": "OwnableUnauthorizedAccount",
      "type": "error"
    },
    {
      "anonymous": false,
      "inputs": [
        {
          "indexed": true,
          "internalType": "address",
          "name": "previousOwner",
          "type": "address"
        },
        {
          "indexed": true,
          "internalType": "address",
          "name": "newOwner",
          "type": "address"
        }
      ],
      "name": "OwnershipTransferred",
      "type": "event"
    },
    {
      "anonymous": false,
      "inputs": [
        {
          "indexed": false,
          "internalType": "contract IERC20",
          "name": "_token",
          "type": "address"
        },
        {
          "indexed": false,
          "internalType": "address",
          "name": "_sender",
          "type": "address"
        },
        {
          "indexed": false,
          "internalType": "address",
          "name": "_recipient",
          "type": "address"
        },
        {
          "indexed": false,
          "internalType": "uint256",
          "name": "_amount",
          "type": "uint256"
        }
      ],
      "name": "SafeTransfer",
      "type": "event"
    },
    {
      "anonymous": false,
      "inputs": [
        {
          "indexed": false,
          "internalType": "address",
          "name": "_token",
          "type": "address"
        }
      ],
      "name": "SetMainToken",
      "type": "event"
    },
    {
      "anonymous": false,
      "inputs": [
        {
          "indexed": false,
          "internalType": "address",
          "name": "_currency",
          "type": "address"
        },
        {
          "indexed": false,
          "internalType": "uint256",
          "name": "_rate",
          "type": "uint256"
        },
        {
          "indexed": false,
          "internalType": "uint256",
          "name": "_decimals",
          "type": "uint256"
        }
      ],
      "name": "SetSwappedCurrencyRateAndDecimals",
      "type": "event"
    },
    {
      "anonymous": false,
      "inputs": [
        {
          "indexed": false,
          "internalType": "address",
          "name": "_token",
          "type": "address"
        },
        {
          "indexed": false,
          "internalType": "uint256",
          "name": "amountSender",
          "type": "uint256"
        },
        {
          "indexed": false,
          "internalType": "address",
          "name": "receiver",
          "type": "address"
        },
        {
          "indexed": false,
          "internalType": "uint256",
          "name": "amountReceiver",
          "type": "uint256"
        }
      ],
      "name": "Swap",
      "type": "event"
    },
    {
      "inputs": [
        {
          "internalType": "address",
          "name": "_token",
          "type": "address"
        },
        {
          "internalType": "uint256",
          "name": "_amount",
          "type": "uint256"
        }
      ],
      "name": "_getSwappedCurrencyToTokenAmount",
      "outputs": [
        {
          "internalType": "uint256",
          "name": "",
          "type": "uint256"
        }
      ],
      "stateMutability": "view",
      "type": "function"
    },
    {
      "inputs": [],
      "name": "admin",
      "outputs": [
        {
          "internalType": "address",
          "name": "",
          "type": "address"
        }
      ],
      "stateMutability": "view",
      "type": "function"
    },
    {
      "inputs": [
        {
          "internalType": "address",
          "name": "_currency",
          "type": "address"
        }
      ],
      "name": "getSwappedCurrencyDecimals",
      "outputs": [
        {
          "internalType": "uint256",
          "name": "",
          "type": "uint256"
        }
      ],
      "stateMutability": "view",
      "type": "function"
    },
    {
      "inputs": [
        {
          "internalType": "address",
          "name": "_currency",
          "type": "address"
        }
      ],
      "name": "getSwappedCurrencyRate",
      "outputs": [
        {
          "internalType": "uint256",
          "name": "",
          "type": "uint256"
        }
      ],
      "stateMutability": "view",
      "type": "function"
    },
    {
      "inputs": [
        {
          "internalType": "address",
          "name": "_mainToken",
          "type": "address"
        },
        {
          "internalType": "address",
          "name": "_swappedCurrency",
          "type": "address"
        },
        {
          "internalType": "uint256",
          "name": "_swappedRate",
          "type": "uint256"
        },
        {
          "internalType": "uint256",
          "name": "_swappedCurrencyDecimals",
          "type": "uint256"
        },
        {
          "internalType": "address",
          "name": "_receiver",
          "type": "address"
        },
        {
          "internalType": "address",
          "name": "_sender",
          "type": "address"
        }
      ],
      "name": "initialize",
      "outputs": [],
      "stateMutability": "nonpayable",
      "type": "function"
    },
    {
      "inputs": [],
      "name": "mainToken",
      "outputs": [
        {
          "internalType": "address",
          "name": "",
          "type": "address"
        }
      ],
      "stateMutability": "view",
      "type": "function"
    },
    {
      "inputs": [],
      "name": "owner",
      "outputs": [
        {
          "internalType": "address",
          "name": "",
          "type": "address"
        }
      ],
      "stateMutability": "view",
      "type": "function"
    },
    {
      "inputs": [],
      "name": "receiver",
      "outputs": [
        {
          "internalType": "address",
          "name": "",
          "type": "address"
        }
      ],
      "stateMutability": "view",
      "type": "function"
    },
    {
      "inputs": [],
      "name": "renounceOwnership",
      "outputs": [],
      "stateMutability": "nonpayable",
      "type": "function"
    },
    {
      "inputs": [],
      "name": "sender",
      "outputs": [
        {
          "internalType": "address",
          "name": "",
          "type": "address"
        }
      ],
      "stateMutability": "view",
      "type": "function"
    },
    {
      "inputs": [
        {
          "internalType": "address",
          "name": "_token",
          "type": "address"
        }
      ],
      "name": "setMainToken",
      "outputs": [],
      "stateMutability": "nonpayable",
      "type": "function"
    },
    {
      "inputs": [
        {
          "internalType": "address",
          "name": "_currency",
          "type": "address"
        },
        {
          "internalType": "uint256",
          "name": "_rate",
          "type": "uint256"
        },
        {
          "internalType": "uint256",
          "name": "_decimals",
          "type": "uint256"
        }
      ],
      "name": "setSwappedCurrencyRateAndDecimals",
      "outputs": [],
      "stateMutability": "nonpayable",
      "type": "function"
    },
    {
      "inputs": [
        {
          "internalType": "address",
          "name": "_token",
          "type": "address"
        },
        {
          "internalType": "uint256",
          "name": "amountSender",
          "type": "uint256"
        }
      ],
      "name": "swap",
      "outputs": [],
      "stateMutability": "nonpayable",
      "type": "function"
    },
    {
      "inputs": [
        {
          "internalType": "address",
          "name": "",
          "type": "address"
        }
      ],
      "name": "swappedCurrencies",
      "outputs": [
        {
          "internalType": "uint256",
          "name": "decimals",
          "type": "uint256"
        },
        {
          "internalType": "uint256",
          "name": "rate",
          "type": "uint256"
        }
      ],
      "stateMutability": "view",
      "type": "function"
    },
    {
      "inputs": [
        {
          "internalType": "address",
          "name": "newOwner",
          "type": "address"
        }
      ],
      "name": "transferOwnership",
      "outputs": [],
      "stateMutability": "nonpayable",
      "type": "function"
    }
  ],
  "bytecode": "0x60806040523480156200001157600080fd5b5033600073ffffffffffffffffffffffffffffffffffffffff168173ffffffffffffffffffffffffffffffffffffffff1603620000885760006040517f1e4fbdf70000000000000000000000000000000000000000000000000000000081526004016200007f9190620001a9565b60405180910390fd5b6200009981620000a060201b60201c565b50620001c6565b60008060009054906101000a900473ffffffffffffffffffffffffffffffffffffffff169050816000806101000a81548173ffffffffffffffffffffffffffffffffffffffff021916908373ffffffffffffffffffffffffffffffffffffffff1602179055508173ffffffffffffffffffffffffffffffffffffffff168173ffffffffffffffffffffffffffffffffffffffff167f8be0079c531659141344cd1fd0a4f28419497f9722a3daafe3b4186f6b6457e060405160405180910390a35050565b600073ffffffffffffffffffffffffffffffffffffffff82169050919050565b6000620001918262000164565b9050919050565b620001a38162000184565b82525050565b6000602082019050620001c0600083018462000198565b92915050565b61158c80620001d66000396000f3fe608060405234801561001057600080fd5b50600436106100f55760003560e01c80638da5cb5b11610097578063db62f38611610066578063db62f3861461025f578063f2fde38b1461028f578063f7260d3e146102ab578063f851a440146102c9576100f5565b80638da5cb5b146101d8578063c7433e6f146101f6578063d004f0f714610227578063d2d1016214610243576100f5565b80633fc15f15116100d35780633fc15f1514610162578063638ebec51461018057806367e404ce146101b0578063715018a6146101ce576100f5565b8063223b9b37146100fa578063230f6b6d1461012a57806327ce464e14610146575b600080fd5b610114600480360381019061010f9190610d8a565b6102e7565b6040516101219190610dd0565b60405180910390f35b610144600480360381019061013f9190610e17565b610333565b005b610160600480360381019061015b9190610d8a565b610409565b005b61016a61051c565b6040516101779190610e79565b60405180910390f35b61019a60048036038101906101959190610e94565b610542565b6040516101a79190610dd0565b60405180910390f35b6101b861058a565b6040516101c59190610e79565b60405180910390f35b6101d66105b0565b005b6101e06105c4565b6040516101ed9190610e79565b60405180910390f35b610210600480360381019061020b9190610d8a565b6105ed565b60405161021e929190610ed4565b60405180910390f35b610241600480360381019061023c9190610e94565b610611565b005b61025d60048036038101906102589190610efd565b610870565b005b61027960048036038101906102749190610d8a565b6109ae565b6040516102869190610dd0565b60405180910390f35b6102a960048036038101906102a49190610d8a565b6109fa565b005b6102b3610a80565b6040516102c09190610e79565b60405180910390f35b6102d1610aa6565b6040516102de9190610e79565b60405180910390f35b6000600560008373ffffffffffffffffffffffffffffffffffffffff1673ffffffffffffffffffffffffffffffffffffffff168152602001908152602001600020600001549050919050565b61033b610acc565b81600560008573ffffffffffffffffffffffffffffffffffffffff1673ffffffffffffffffffffffffffffffffffffffff1681526020019081526020016000206001018190555080600560008573ffffffffffffffffffffffffffffffffffffffff1673ffffffffffffffffffffffffffffffffffffffff168152602001908152602001600020600001819055507fdd261b488ca13f0721213bbf159bc1fd811efd3ad24e2af881c7db1e0cc5cf4a8383836040516103fc93929190610f8a565b60405180910390a1505050565b610411610acc565b600160009054906101000a900473ffffffffffffffffffffffffffffffffffffffff1673ffffffffffffffffffffffffffffffffffffffff168173ffffffffffffffffffffffffffffffffffffffff16146104a1576040517f08c379a00000000000000000000000000000000000000000000000000000000081526004016104989061101e565b60405180910390fd5b80600160006101000a81548173ffffffffffffffffffffffffffffffffffffffff021916908373ffffffffffffffffffffffffffffffffffffffff1602179055507fdc7ceaca37e8cee252c8e65962927b17546f7b48c959d9c8545b8aa05e8bb12a816040516105119190610e79565b60405180910390a150565b600160009054906101000a900473ffffffffffffffffffffffffffffffffffffffff1681565b60008061054e846109ae565b9050600061055b856102e7565b905080600a61056a91906111a0565b828561057691906111eb565b610580919061125c565b9250505092915050565b600360009054906101000a900473ffffffffffffffffffffffffffffffffffffffff1681565b6105b8610acc565b6105c26000610b53565b565b60008060009054906101000a900473ffffffffffffffffffffffffffffffffffffffff16905090565b60056020528060005260406000206000915090508060000154908060010154905082565b60008111610654576040517f08c379a000000000000000000000000000000000000000000000000000000000815260040161064b906112d9565b60405180910390fd5b600260009054906101000a900473ffffffffffffffffffffffffffffffffffffffff1673ffffffffffffffffffffffffffffffffffffffff163373ffffffffffffffffffffffffffffffffffffffff1614806106fd5750600360009054906101000a900473ffffffffffffffffffffffffffffffffffffffff1673ffffffffffffffffffffffffffffffffffffffff163373ffffffffffffffffffffffffffffffffffffffff16145b61073c576040517f08c379a000000000000000000000000000000000000000000000000000000000815260040161073390611345565b60405180910390fd5b60006107488383610542565b90506107bc600160009054906101000a900473ffffffffffffffffffffffffffffffffffffffff16600360009054906101000a900473ffffffffffffffffffffffffffffffffffffffff16600260009054906101000a900473ffffffffffffffffffffffffffffffffffffffff1685610c17565b61080c83600260009054906101000a900473ffffffffffffffffffffffffffffffffffffffff16600360009054906101000a900473ffffffffffffffffffffffffffffffffffffffff1684610c17565b7fe5aa1cf5889c85b4317294c95f7f50feb57435a6defc7fa30823011ec18212a18383600260009054906101000a900473ffffffffffffffffffffffffffffffffffffffff16846040516108639493929190611365565b60405180910390a1505050565b610878610acc565b85600160006101000a81548173ffffffffffffffffffffffffffffffffffffffff021916908373ffffffffffffffffffffffffffffffffffffffff16021790555081600260006101000a81548173ffffffffffffffffffffffffffffffffffffffff021916908373ffffffffffffffffffffffffffffffffffffffff16021790555080600360006101000a81548173ffffffffffffffffffffffffffffffffffffffff021916908373ffffffffffffffffffffffffffffffffffffffff160217905550604051806040016040528084815260200185815250600560008773ffffffffffffffffffffffffffffffffffffffff1673ffffffffffffffffffffffffffffffffffffffff1681526020019081526020016000206000820151816000015560208201518160010155905050505050505050565b6000600560008373ffffffffffffffffffffffffffffffffffffffff1673ffffffffffffffffffffffffffffffffffffffff168152602001908152602001600020600101549050919050565b610a02610acc565b600073ffffffffffffffffffffffffffffffffffffffff168173ffffffffffffffffffffffffffffffffffffffff1603610a745760006040517f1e4fbdf7000000000000000000000000000000000000000000000000000000008152600401610a6b9190610e79565b60405180910390fd5b610a7d81610b53565b50565b600260009054906101000a900473ffffffffffffffffffffffffffffffffffffffff1681565b600460009054906101000a900473ffffffffffffffffffffffffffffffffffffffff1681565b610ad4610d1f565b73ffffffffffffffffffffffffffffffffffffffff16610af26105c4565b73ffffffffffffffffffffffffffffffffffffffff1614610b5157610b15610d1f565b6040517f118cdaa7000000000000000000000000000000000000000000000000000000008152600401610b489190610e79565b60405180910390fd5b565b60008060009054906101000a900473ffffffffffffffffffffffffffffffffffffffff169050816000806101000a81548173ffffffffffffffffffffffffffffffffffffffff021916908373ffffffffffffffffffffffffffffffffffffffff1602179055508173ffffffffffffffffffffffffffffffffffffffff168173ffffffffffffffffffffffffffffffffffffffff167f8be0079c531659141344cd1fd0a4f28419497f9722a3daafe3b4186f6b6457e060405160405180910390a35050565b60008473ffffffffffffffffffffffffffffffffffffffff166323b872dd8585856040518463ffffffff1660e01b8152600401610c56939291906113aa565b6020604051808303816000875af1158015610c75573d6000803e3d6000fd5b505050506040513d601f19601f82011682018060405250810190610c999190611419565b905080610cdb576040517f08c379a0000000000000000000000000000000000000000000000000000000008152600401610cd290611492565b60405180910390fd5b7f0cccc806671270461f7a0643d1686df3a11dab51db9c7fe4e2292f5ccc6363e585338585604051610d109493929190611511565b60405180910390a15050505050565b600033905090565b600080fd5b600073ffffffffffffffffffffffffffffffffffffffff82169050919050565b6000610d5782610d2c565b9050919050565b610d6781610d4c565b8114610d7257600080fd5b50565b600081359050610d8481610d5e565b92915050565b600060208284031215610da057610d9f610d27565b5b6000610dae84828501610d75565b91505092915050565b6000819050919050565b610dca81610db7565b82525050565b6000602082019050610de56000830184610dc1565b92915050565b610df481610db7565b8114610dff57600080fd5b50565b600081359050610e1181610deb565b92915050565b600080600060608486031215610e3057610e2f610d27565b5b6000610e3e86828701610d75565b9350506020610e4f86828701610e02565b9250506040610e6086828701610e02565b9150509250925092565b610e7381610d4c565b82525050565b6000602082019050610e8e6000830184610e6a565b92915050565b60008060408385031215610eab57610eaa610d27565b5b6000610eb985828601610d75565b9250506020610eca85828601610e02565b9150509250929050565b6000604082019050610ee96000830185610dc1565b610ef66020830184610dc1565b9392505050565b60008060008060008060c08789031215610f1a57610f19610d27565b5b6000610f2889828a01610d75565b9650506020610f3989828a01610d75565b9550506040610f4a89828a01610e02565b9450506060610f5b89828a01610e02565b9350506080610f6c89828a01610d75565b92505060a0610f7d89828a01610d75565b9150509295509295509295565b6000606082019050610f9f6000830186610e6a565b610fac6020830185610dc1565b610fb96040830184610dc1565b949350505050565b600082825260208201905092915050565b7f43616e206e6f7420736574207468652073616d6520746f6b656e000000000000600082015250565b6000611008601a83610fc1565b915061101382610fd2565b602082019050919050565b6000602082019050818103600083015261103781610ffb565b9050919050565b7f4e487b7100000000000000000000000000000000000000000000000000000000600052601160045260246000fd5b60008160011c9050919050565b6000808291508390505b60018511156110c4578086048111156110a05761109f61103e565b5b60018516156110af5780820291505b80810290506110bd8561106d565b9450611084565b94509492505050565b6000826110dd5760019050611199565b816110eb5760009050611199565b8160018114611101576002811461110b5761113a565b6001915050611199565b60ff84111561111d5761111c61103e565b5b8360020a9150848211156111345761113361103e565b5b50611199565b5060208310610133831016604e8410600b841016171561116f5782820a90508381111561116a5761116961103e565b5b611199565b61117c848484600161107a565b925090508184048111156111935761119261103e565b5b81810290505b9392505050565b60006111ab82610db7565b91506111b683610db7565b92506111e37fffffffffffffffffffffffffffffffffffffffffffffffffffffffffffffffff84846110cd565b905092915050565b60006111f682610db7565b915061120183610db7565b925082820261120f81610db7565b915082820484148315176112265761122561103e565b5b5092915050565b7f4e487b7100000000000000000000000000000000000000000000000000000000600052601260045260246000fd5b600061126782610db7565b915061127283610db7565b9250826112825761128161122d565b5b828204905092915050565b7f416d6f756e74206973207a65726f000000000000000000000000000000000000600082015250565b60006112c3600e83610fc1565b91506112ce8261128d565b602082019050919050565b600060208201905081810360008301526112f2816112b6565b9050919050565b7f554e415554484f52495a45440000000000000000000000000000000000000000600082015250565b600061132f600c83610fc1565b915061133a826112f9565b602082019050919050565b6000602082019050818103600083015261135e81611322565b9050919050565b600060808201905061137a6000830187610e6a565b6113876020830186610dc1565b6113946040830185610e6a565b6113a16060830184610dc1565b95945050505050565b60006060820190506113bf6000830186610e6a565b6113cc6020830185610e6a565b6113d96040830184610dc1565b949350505050565b60008115159050919050565b6113f6816113e1565b811461140157600080fd5b50565b600081519050611413816113ed565b92915050565b60006020828403121561142f5761142e610d27565b5b600061143d84828501611404565b91505092915050565b7f546f6b656e207472616e73666572206661696c65640000000000000000000000600082015250565b600061147c601583610fc1565b915061148782611446565b602082019050919050565b600060208201905081810360008301526114ab8161146f565b9050919050565b6000819050919050565b60006114d76114d26114cd84610d2c565b6114b2565b610d2c565b9050919050565b60006114e9826114bc565b9050919050565b60006114fb826114de565b9050919050565b61150b816114f0565b82525050565b60006080820190506115266000830187611502565b6115336020830186610e6a565b6115406040830185610e6a565b61154d6060830184610dc1565b9594505050505056fea2646970667358221220489312082df9b951befb4a3f2841411d73855cf851b7139e08268a039d877e3164736f6c63430008180033",
  "linkReferences": {},
  "deployedLinkReferences": {}
}